{
  "address": "0x3a1de59B6f7E3c2489346696784e6Ac709498DD4",
  "abi": [
    {
      "anonymous": false,
      "inputs": [
        {
          "indexed": true,
          "internalType": "address",
          "name": "account",
          "type": "address"
        },
        {
          "indexed": true,
          "internalType": "uint256",
          "name": "redeemId",
          "type": "uint256"
        },
        {
          "indexed": false,
          "internalType": "uint256",
          "name": "amountRedeemed",
          "type": "uint256"
        },
        {
          "indexed": false,
          "internalType": "uint256",
          "name": "redeemEnd",
          "type": "uint256"
        },
        {
          "indexed": false,
          "internalType": "uint256",
          "name": "claimAmount",
          "type": "uint256"
        }
      ],
      "name": "Claimed",
      "type": "event"
    },
    {
      "anonymous": false,
      "inputs": [
        {
          "indexed": true,
          "internalType": "address",
          "name": "account",
          "type": "address"
        },
        {
          "indexed": false,
          "internalType": "uint256",
          "name": "amount",
          "type": "uint256"
        }
      ],
      "name": "ClaimedOwner",
      "type": "event"
    },
    {
      "anonymous": false,
      "inputs": [
        {
          "indexed": false,
          "internalType": "uint8",
          "name": "version",
          "type": "uint8"
        }
      ],
      "name": "Initialized",
      "type": "event"
    },
    {
      "anonymous": false,
      "inputs": [
        {
          "indexed": true,
          "internalType": "address",
          "name": "previousOwner",
          "type": "address"
        },
        {
          "indexed": true,
          "internalType": "address",
          "name": "newOwner",
          "type": "address"
        }
      ],
      "name": "OwnershipTransferStarted",
      "type": "event"
    },
    {
      "anonymous": false,
      "inputs": [
        {
          "indexed": true,
          "internalType": "address",
          "name": "previousOwner",
          "type": "address"
        },
        {
          "indexed": true,
          "internalType": "address",
          "name": "newOwner",
          "type": "address"
        }
      ],
      "name": "OwnershipTransferred",
      "type": "event"
    },
    {
      "anonymous": false,
      "inputs": [
        {
          "indexed": false,
          "internalType": "address",
          "name": "account",
          "type": "address"
        }
      ],
      "name": "Paused",
      "type": "event"
    },
    {
      "anonymous": false,
      "inputs": [
        {
          "indexed": true,
          "internalType": "address",
          "name": "account",
          "type": "address"
        },
        {
          "indexed": true,
          "internalType": "uint256",
          "name": "redeemId",
          "type": "uint256"
        },
        {
          "indexed": false,
          "internalType": "uint256",
          "name": "redeemAmount",
          "type": "uint256"
        }
      ],
      "name": "Redeemed",
      "type": "event"
    },
    {
      "anonymous": false,
      "inputs": [
        {
          "indexed": true,
          "internalType": "address",
          "name": "account",
          "type": "address"
        },
        {
          "indexed": false,
          "internalType": "uint256",
          "name": "amount",
          "type": "uint256"
        },
        {
          "indexed": false,
          "internalType": "uint256",
          "name": "totalSlashed",
          "type": "uint256"
        }
      ],
      "name": "RedeemedSlashed",
      "type": "event"
    },
    {
      "anonymous": false,
      "inputs": [
        {
          "indexed": true,
          "internalType": "uint256",
          "name": "redeemId",
          "type": "uint256"
        }
      ],
      "name": "UnClaimed",
      "type": "event"
    },
    {
      "anonymous": false,
      "inputs": [
        {
          "indexed": false,
          "internalType": "address",
          "name": "account",
          "type": "address"
        }
      ],
      "name": "Unpaused",
      "type": "event"
    },
    {
      "inputs": [],
      "name": "METIS_TOKEN",
      "outputs": [
        {
          "internalType": "address",
          "name": "",
          "type": "address"
        }
      ],
      "stateMutability": "view",
      "type": "function"
    },
    {
      "inputs": [],
      "name": "PRICE_PRECISION",
      "outputs": [
        {
          "internalType": "uint256",
          "name": "",
          "type": "uint256"
        }
      ],
      "stateMutability": "view",
      "type": "function"
    },
    {
      "inputs": [],
      "name": "acceptOwnership",
      "outputs": [],
      "stateMutability": "nonpayable",
      "type": "function"
    },
    {
      "inputs": [
        {
          "internalType": "uint256",
          "name": "amount",
          "type": "uint256"
        },
        {
          "internalType": "bytes32[]",
          "name": "merkleProof",
          "type": "bytes32[]"
        },
        {
          "internalType": "uint256",
          "name": "claimAmount",
          "type": "uint256"
        },
        {
          "internalType": "uint256",
          "name": "redeemEnd",
          "type": "uint256"
        }
      ],
      "name": "claim",
      "outputs": [],
      "stateMutability": "nonpayable",
      "type": "function"
    },
    {
      "inputs": [],
      "name": "claimDeadline",
      "outputs": [
        {
          "internalType": "uint256",
          "name": "",
          "type": "uint256"
        }
      ],
      "stateMutability": "view",
      "type": "function"
    },
    {
      "inputs": [
        {
          "internalType": "address",
          "name": "",
          "type": "address"
        }
      ],
      "name": "claimed",
      "outputs": [
        {
          "internalType": "uint256",
          "name": "",
          "type": "uint256"
        }
      ],
      "stateMutability": "view",
      "type": "function"
    },
    {
      "inputs": [],
      "name": "cliffLength",
      "outputs": [
        {
          "internalType": "uint256",
          "name": "",
          "type": "uint256"
        }
      ],
      "stateMutability": "view",
      "type": "function"
    },
    {
      "inputs": [],
      "name": "currentSlashed",
      "outputs": [
        {
          "internalType": "uint256",
          "name": "",
          "type": "uint256"
        }
      ],
      "stateMutability": "view",
      "type": "function"
    },
    {
      "inputs": [
        {
          "internalType": "address",
          "name": "token",
          "type": "address"
        },
        {
          "internalType": "uint256",
          "name": "amount",
          "type": "uint256"
        }
      ],
      "name": "emergencyRecoverToken",
      "outputs": [],
      "stateMutability": "nonpayable",
      "type": "function"
    },
    {
      "inputs": [
        {
          "internalType": "bytes32",
          "name": "merkleRoot_",
          "type": "bytes32"
        },
        {
          "internalType": "uint256",
          "name": "claimDeadline_",
          "type": "uint256"
        },
        {
          "internalType": "uint256",
          "name": "minPrice_",
          "type": "uint256"
        },
        {
          "internalType": "uint256",
          "name": "maxPrice_",
          "type": "uint256"
        },
        {
          "internalType": "uint256",
          "name": "cliffLength_",
          "type": "uint256"
        },
        {
          "internalType": "uint256",
          "name": "maxRedeemLength_",
          "type": "uint256"
        }
      ],
      "name": "initialize",
      "outputs": [],
      "stateMutability": "nonpayable",
      "type": "function"
    },
    {
      "inputs": [],
      "name": "maxPrice",
      "outputs": [
        {
          "internalType": "uint256",
          "name": "",
          "type": "uint256"
        }
      ],
      "stateMutability": "view",
      "type": "function"
    },
    {
      "inputs": [],
      "name": "maxRedeemLength",
      "outputs": [
        {
          "internalType": "uint256",
          "name": "",
          "type": "uint256"
        }
      ],
      "stateMutability": "view",
      "type": "function"
    },
    {
      "inputs": [],
      "name": "merkleRoot",
      "outputs": [
        {
          "internalType": "bytes32",
          "name": "",
          "type": "bytes32"
        }
      ],
      "stateMutability": "view",
      "type": "function"
    },
    {
      "inputs": [],
      "name": "minPrice",
      "outputs": [
        {
          "internalType": "uint256",
          "name": "",
          "type": "uint256"
        }
      ],
      "stateMutability": "view",
      "type": "function"
    },
    {
      "inputs": [],
      "name": "owner",
      "outputs": [
        {
          "internalType": "address",
          "name": "",
          "type": "address"
        }
      ],
      "stateMutability": "view",
      "type": "function"
    },
    {
      "inputs": [],
      "name": "pause",
      "outputs": [],
      "stateMutability": "nonpayable",
      "type": "function"
    },
    {
      "inputs": [],
      "name": "paused",
      "outputs": [
        {
          "internalType": "bool",
          "name": "",
          "type": "bool"
        }
      ],
      "stateMutability": "view",
      "type": "function"
    },
    {
      "inputs": [],
      "name": "pendingOwner",
      "outputs": [
        {
          "internalType": "address",
          "name": "",
          "type": "address"
        }
      ],
      "stateMutability": "view",
      "type": "function"
    },
    {
      "inputs": [
        {
          "internalType": "uint256",
          "name": "timestamp",
          "type": "uint256"
        },
        {
          "internalType": "uint256",
          "name": "startDate",
          "type": "uint256"
        }
      ],
      "name": "priceRatioAt",
      "outputs": [
        {
          "internalType": "uint256",
          "name": "",
          "type": "uint256"
        }
      ],
      "stateMutability": "view",
      "type": "function"
    },
    {
      "inputs": [],
      "name": "rMetis",
      "outputs": [
        {
          "internalType": "contract ERC1155PresetMinterPauser",
          "name": "",
          "type": "address"
        }
      ],
      "stateMutability": "view",
      "type": "function"
    },
    {
      "inputs": [
        {
          "internalType": "uint256",
          "name": "redeemId",
          "type": "uint256"
        },
        {
          "internalType": "uint256",
          "name": "amount",
          "type": "uint256"
        }
      ],
      "name": "redeem",
      "outputs": [],
      "stateMutability": "nonpayable",
      "type": "function"
    },
    {
      "inputs": [],
      "name": "redeemsCnt",
      "outputs": [
        {
          "internalType": "uint256",
          "name": "",
          "type": "uint256"
        }
      ],
      "stateMutability": "view",
      "type": "function"
    },
    {
      "inputs": [],
      "name": "renounceOwnership",
      "outputs": [],
      "stateMutability": "nonpayable",
      "type": "function"
    },
    {
      "inputs": [
        {
          "internalType": "uint256",
          "name": "redeemId",
          "type": "uint256"
        },
        {
          "internalType": "uint256",
          "name": "newRedeemEnd",
          "type": "uint256"
        }
      ],
      "name": "resetRedeemDate",
      "outputs": [],
      "stateMutability": "nonpayable",
      "type": "function"
    },
    {
      "inputs": [],
      "name": "totalSlashed",
      "outputs": [
        {
          "internalType": "uint256",
          "name": "",
          "type": "uint256"
        }
      ],
      "stateMutability": "view",
      "type": "function"
    },
    {
      "inputs": [
        {
          "internalType": "address",
          "name": "newOwner",
          "type": "address"
        }
      ],
      "name": "transferOwnership",
      "outputs": [],
      "stateMutability": "nonpayable",
      "type": "function"
    },
    {
      "inputs": [],
      "name": "unPause",
      "outputs": [],
      "stateMutability": "nonpayable",
      "type": "function"
    },
    {
      "stateMutability": "payable",
      "type": "receive"
    }
  ],
  "transactionHash": "0x41cf860956cac7fc1eeb98ec9ac9acb3c4cc3efcb75c983cc65c5c149ef1946e",
  "args": [],
  "numDeployments": 1,
  "solcInputHash": "8f2f47636e3ffb693bc45d6f331efa02",
  "bytecode": "0x6080604052600060075534801561001557600080fd5b5061001f33610031565b6001805460ff60a01b191690556100a8565b600180546001600160a01b031916905561005581610058602090811b6116cf17901c565b50565b600080546001600160a01b038381166001600160a01b0319831681178455604051919092169283917f8be0079c531659141344cd1fd0a4f28419497f9722a3daafe3b4186f6b6457e09190a35050565b61514680620000b86000396000f3fe608060405260043610620001d35760003560e01c80638bed9e5b11620000ff578063e0131fd11162000095578063e45be8eb116200006c578063e45be8eb14620004d0578063e53d5df414620004e8578063f2fde38b146200050d578063f7b188a5146200053257600080fd5b8063e0131fd11462000480578063e30c39781462000498578063e38d6b5c14620004b857600080fd5b8063953b45ad11620000d6578063953b45ad14620004075780639e137b4e146200041f578063a201bbdd1462000437578063c884ef83146200044f57600080fd5b80638bed9e5b14620003b75780638da5cb5b14620003cf57806395082d2514620003ef57600080fd5b8063715018a611620001755780637cbc2373116200014c5780637cbc2373146200033057806380a7549514620003555780638456cb59146200037a5780638803c0ad146200039257600080fd5b8063715018a614620002d95780637902019414620002f357806379ba5097146200031857600080fd5b80633487427611620001aa57806334874276146200026b5780633ba86c4414620002955780635c975abb14620002ad57600080fd5b806323d6c48114620001e05780632460eba214620002185780632eb4a7ab146200025357600080fd5b36620001db57005b600080fd5b348015620001ed57600080fd5b5062000205620001ff36600462001a44565b6200054a565b6040519081526020015b60405180910390f35b3480156200022557600080fd5b506002546200023a906001600160a01b031681565b6040516001600160a01b0390911681526020016200020f565b3480156200026057600080fd5b506200020560035481565b3480156200027857600080fd5b506200023a73deaddeaddeaddeaddeaddeaddeaddeaddead000081565b348015620002a257600080fd5b506200020560045481565b348015620002ba57600080fd5b50600154600160a01b900460ff1660405190151581526020016200020f565b348015620002e657600080fd5b50620002f1620005cb565b005b3480156200030057600080fd5b50620002f16200031236600462001a84565b620005e3565b3480156200032557600080fd5b50620002f16200068f565b3480156200033d57600080fd5b50620002f16200034f36600462001a44565b62000725565b3480156200036257600080fd5b50620002f16200037436600462001a44565b6200086c565b3480156200038757600080fd5b50620002f162000d28565b3480156200039f57600080fd5b50620002f1620003b136600462001ab1565b62000d3c565b348015620003c457600080fd5b5062000205600b5481565b348015620003dc57600080fd5b506000546001600160a01b03166200023a565b348015620003fc57600080fd5b506200020561271081565b3480156200041457600080fd5b506200020560075481565b3480156200042c57600080fd5b5062000205600c5481565b3480156200044457600080fd5b5062000205600d5481565b3480156200045c57600080fd5b50620002056200046e36600462001af5565b60056020526000908152604090205481565b3480156200048d57600080fd5b5062000205600a5481565b348015620004a557600080fd5b506001546001600160a01b03166200023a565b348015620004c557600080fd5b506200020560095481565b348015620004dd57600080fd5b506200020560085481565b348015620004f557600080fd5b50620002f16200050736600462001b13565b6200111f565b3480156200051a57600080fd5b50620002f16200052c36600462001af5565b6200163a565b3480156200053f57600080fd5b50620002f1620016bb565b6000818310156200055e57506000620005c5565b60006200056c838562001bbc565b90506000600b549050600060085460095462000589919062001bbc565b9050620005bf620005a783620005a084876200172c565b9062001741565b600854620005b6919062001bd2565b6009546200174f565b93505050505b92915050565b620005d562001767565b620005e16000620017c3565b565b620005ed62001767565b6001600160a01b03821663a9059cbb335b6040517fffffffff0000000000000000000000000000000000000000000000000000000060e084901b1681526001600160a01b039091166004820152602481018490526044016020604051808303816000875af115801562000664573d6000803e3d6000fd5b505050506040513d601f19601f820116820180604052508101906200068a919062001be8565b505050565b60015433906001600160a01b03168114620007175760405162461bcd60e51b815260206004820152602960248201527f4f776e61626c6532537465703a2063616c6c6572206973206e6f74207468652060448201527f6e6577206f776e6572000000000000000000000000000000000000000000000060648201526084015b60405180910390fd5b6200072281620017c3565b50565b600082815260066020526040902060010154421115620007ae5760405162461bcd60e51b815260206004820152602c60248201527f56657374696e675661756c743a207761697420666f722074686520656e64206f60448201527f6620726564656d7074696f6e000000000000000000000000000000000000000060648201526084016200070e565b6002546001600160a01b031663f5298aca336040517fffffffff0000000000000000000000000000000000000000000000000000000060e084901b1681526001600160a01b0390911660048201526024810185905260448101849052606401600060405180830381600087803b1580156200082857600080fd5b505af11580156200083d573d6000803e3d6000fd5b5050505073deaddeaddeaddeaddeaddeaddeaddeaddead00006001600160a01b031663a9059cbb620005fe3390565b6002546001600160a01b031663f5298aca336000858152600660205260409081902060020154905160e084901b7fffffffff000000000000000000000000000000000000000000000000000000001681526001600160a01b039092166004830152602482018690526044820152606401600060405180830381600087803b158015620008f757600080fd5b505af11580156200090c573d6000803e3d6000fd5b50505060008381526006602052604090206001015442119050620009995760405162461bcd60e51b815260206004820152603760248201527f56657374696e675661756c743a2043616e277420756e636c61696d206166746560448201527f722072656465656d20706572696f64206973206f76657200000000000000000060648201526084016200070e565b600454421062000a125760405162461bcd60e51b815260206004820152602860248201527f56657374696e675661756c743a20436c61696d20646561646c696e652068617360448201527f207061737365642e00000000000000000000000000000000000000000000000060648201526084016200070e565b600a5462000a218242620017eb565b101562000a975760405162461bcd60e51b815260206004820152602d60248201527f56657374696e675661756c743a2052656465656d2073686f727465722074686160448201527f6e20636c6966664c656e6774680000000000000000000000000000000000000060648201526084016200070e565b600b5462000aa68242620017eb565b111562000b1c5760405162461bcd60e51b815260206004820152603060248201527f56657374696e675661756c743a2052656465656d206c6f6e676572207468616e60448201527f206d617852656465656d4c656e6774680000000000000000000000000000000060648201526084016200070e565b60008281526006602052604081206002015462000b4f9061271090620005a09062000b4886426200054a565b906200172c565b9050604051806060016040528082815260200183815260200160066000868152602001908152602001600020600201548152506006600060076000815462000b979062001c0c565b918290555081526020808201929092526040908101600020835181559183015160018301559190910151600291820155546001600160a01b031663731133e9336007546040517fffffffff0000000000000000000000000000000000000000000000000000000060e085901b1681526001600160a01b039092166004830152602482015260448101849052608060648201526000608482015260a401600060405180830381600087803b15801562000c4e57600080fd5b505af115801562000c63573d6000803e3d6000fd5b5050505060075462000c723390565b6001600160a01b03167f7708755c9b641bf197be5047b04002d2e88fa658c173a351067747eb5dfc568a8385600660008981526020019081526020016000206002015460405162000cd6939291909283526020830191909152604082015260600190565b60405180910390a3600083815260066020526040808220828155600181018390556002018290555184917f50a2a72b7daeaca1a621cf924b8864f0356b091addaff72dd8610794b9ee017691a2505050565b62000d3262001767565b620005e1620017f9565b600154760100000000000000000000000000000000000000000000900460ff161580801562000d885750600180547501000000000000000000000000000000000000000000900460ff16105b8062000dbc5750303b15801562000dbc5750600180547501000000000000000000000000000000000000000000900460ff16145b62000e305760405162461bcd60e51b815260206004820152602e60248201527f496e697469616c697a61626c653a20636f6e747261637420697320616c72656160448201527f647920696e697469616c697a656400000000000000000000000000000000000060648201526084016200070e565b600180547fffffffffffffffffffff00ffffffffffffffffffffffffffffffffffffffffff167501000000000000000000000000000000000000000000179055801562000eb957600180547fffffffffffffffffff00ffffffffffffffffffffffffffffffffffffffffffff167601000000000000000000000000000000000000000000001790555b42861162000f305760405162461bcd60e51b815260206004820152602760248201527f56657374696e675661756c743a20496e76616c69642061697264726f7020647560448201527f726174696f6e2e0000000000000000000000000000000000000000000000000060648201526084016200070e565b83851115801562000f4357506127108411155b62000fb75760405162461bcd60e51b815260206004820152602260248201527f56657374696e675661756c743a20496e76616c69642070726963652072616e6760448201527f652e00000000000000000000000000000000000000000000000000000000000060648201526084016200070e565b8183106200102e5760405162461bcd60e51b815260206004820152602a60248201527f56657374696e675661756c743a20496e76616c69642072656465656d206c656e60448201527f67746820626f756e64730000000000000000000000000000000000000000000060648201526084016200070e565b6040516200103c9062001a36565b6020808252600090820152604001604051809103906000f08015801562001067573d6000803e3d6000fd5b506002805473ffffffffffffffffffffffffffffffffffffffff19166001600160a01b03929092169190911790556003879055600486905560088590556009849055600a839055600b82905580156200111657600180547fffffffffffffffffff00ffffffffffffffffffffffffffffffffffffffffffff1681556040519081527f7f26b83ff96e1f2b6a682f133852f6798a09c465da95921460cefb38474024989060200160405180910390a15b50505050505050565b6200112962001877565b600033604080516001600160a01b0390921660208301528101879052606001604080517fffffffffffffffffffffffffffffffffffffffffffffffffffffffffffffffe0818403018152828252805160209182012090830152016040516020818303038152906040528051906020012090506004544210620012145760405162461bcd60e51b815260206004820152602860248201527f56657374696e675661756c743a20436c61696d20646561646c696e652068617360448201527f207061737365642e00000000000000000000000000000000000000000000000060648201526084016200070e565b600a54620012238342620017eb565b1015620012995760405162461bcd60e51b815260206004820152602d60248201527f56657374696e675661756c743a2052656465656d2073686f727465722074686160448201527f6e20636c6966664c656e6774680000000000000000000000000000000000000060648201526084016200070e565b600b54620012a88342620017eb565b11156200131e5760405162461bcd60e51b815260206004820152603060248201527f56657374696e675661756c743a2052656465656d206c6f6e676572207468616e60448201527f206d617852656465656d4c656e6774680000000000000000000000000000000060648201526084016200070e565b62001361858580806020026020016040519081016040528093929190818152602001838360200280828437600092019190915250506003549150849050620018d3565b620013af5760405162461bcd60e51b815260206004820152601c60248201527f56657374696e675661756c743a20496e76616c69642070726f6f662e0000000060448201526064016200070e565b336000908152600560205260409020548690620013cd9085620018eb565b1115620014435760405162461bcd60e51b815260206004820152602360248201527f56657374696e675661756c743a2044726f7020616c726561647920636c61696d60448201527f65642e000000000000000000000000000000000000000000000000000000000060648201526084016200070e565b60008311620014955760405162461bcd60e51b815260206004820152601a60248201527f436c61696d20416d6f756e742063616e2774206265207a65726f00000000000060448201526064016200070e565b3360009081526005602052604081208054859290620014b690849062001bd2565b9091555060009050620014d6612710620005a08662000b4887426200054a565b905060405180606001604052808281526020018481526020018581525060066000600760008154620015089062001c0c565b918290555081526020808201929092526040908101600020835181559183015160018301559190910151600291820155546001600160a01b031663731133e9336007546040517fffffffff0000000000000000000000000000000000000000000000000000000060e085901b1681526001600160a01b039092166004830152602482015260448101849052608060648201526000608482015260a401600060405180830381600087803b158015620015bf57600080fd5b505af1158015620015d4573d6000803e3d6000fd5b50505050600754620015e33390565b60408051848152602081018790529081018790526001600160a01b0391909116907f7708755c9b641bf197be5047b04002d2e88fa658c173a351067747eb5dfc568a9060600160405180910390a350505050505050565b6200164462001767565b600180546001600160a01b03831673ffffffffffffffffffffffffffffffffffffffff199091168117909155620016836000546001600160a01b031690565b6001600160a01b03167f38d16b8cac22d99fc7c124b9cd0de2d3fa1faef420bfe791d8c362d765e2270060405160405180910390a350565b620016c562001767565b620005e1620018f9565b600080546001600160a01b0383811673ffffffffffffffffffffffffffffffffffffffff19831681178455604051919092169283917f8be0079c531659141344cd1fd0a4f28419497f9722a3daafe3b4186f6b6457e09190a35050565b60006200173a828462001c47565b9392505050565b60006200173a828462001c61565b60008183106200176057816200173a565b5090919050565b6000546001600160a01b03163314620005e15760405162461bcd60e51b815260206004820181905260248201527f4f776e61626c653a2063616c6c6572206973206e6f7420746865206f776e657260448201526064016200070e565b6001805473ffffffffffffffffffffffffffffffffffffffff191690556200072281620016cf565b60006200173a828462001bbc565b6200180362001877565b600180547fffffffffffffffffffffff00ffffffffffffffffffffffffffffffffffffffff16600160a01b1790557f62e78cea01bee320cd4e420270b5ea74000d11b0c9f74754ebdbfc544b05a2586200185a3390565b6040516001600160a01b03909116815260200160405180910390a1565b600154600160a01b900460ff1615620005e15760405162461bcd60e51b815260206004820152601060248201527f5061757361626c653a207061757365640000000000000000000000000000000060448201526064016200070e565b600082620018e2858462001953565b14949350505050565b60006200173a828462001bd2565b62001903620019a9565b600180547fffffffffffffffffffffff00ffffffffffffffffffffffffffffffffffffffff1690557f5db9ee0a495bf2e6ff9c91a7834c1ba4fdd244a5e8aa4e537bd38aeae4b073aa336200185a565b600081815b8451811015620019a1576200198a828683815181106200197c576200197c62001c84565b602002602001015162001a04565b915080620019988162001c0c565b91505062001958565b509392505050565b600154600160a01b900460ff16620005e15760405162461bcd60e51b815260206004820152601460248201527f5061757361626c653a206e6f742070617573656400000000000000000000000060448201526064016200070e565b600081831062001a225760008281526020849052604090206200173a565b60008381526020839052604090206200173a565b6134768062001c9b83390190565b6000806040838503121562001a5857600080fd5b50508035926020909101359150565b80356001600160a01b038116811462001a7f57600080fd5b919050565b6000806040838503121562001a9857600080fd5b62001aa38362001a67565b946020939093013593505050565b60008060008060008060c0878903121562001acb57600080fd5b505084359660208601359650604086013595606081013595506080810135945060a0013592509050565b60006020828403121562001b0857600080fd5b6200173a8262001a67565b60008060008060006080868803121562001b2c57600080fd5b85359450602086013567ffffffffffffffff8082111562001b4c57600080fd5b818801915088601f83011262001b6157600080fd5b81358181111562001b7157600080fd5b8960208260051b850101111562001b8757600080fd5b9699602092909201985095966040810135965060600135945092505050565b634e487b7160e01b600052601160045260246000fd5b81810381811115620005c557620005c562001ba6565b80820180821115620005c557620005c562001ba6565b60006020828403121562001bfb57600080fd5b815180151581146200173a57600080fd5b60007fffffffffffffffffffffffffffffffffffffffffffffffffffffffffffffffff820362001c405762001c4062001ba6565b5060010190565b8082028115828204841417620005c557620005c562001ba6565b60008262001c7f57634e487b7160e01b600052601260045260246000fd5b500490565b634e487b7160e01b600052603260045260246000fdfe60806040523480156200001157600080fd5b50604051620034763803806200347683398101604081905262000034916200023a565b806200004081620000b7565b506005805460ff1916905562000058600033620000c9565b620000847f9f2df0fed2c77648de5860a4cc508cd0818c85b8b8a1ab4ceeef8d981c8956a633620000c9565b620000b07f65d7a28e3265b37a6474929f336521b332c1681b933f6cb9f3376673440d862a33620000c9565b5062000469565b6004620000c582826200039d565b5050565b620000c58282620000e682826200011260201b62000ceb1760201c565b60008281526001602090815260409091206200010d91839062000d89620001b2821b17901c565b505050565b6000828152602081815260408083206001600160a01b038516845290915290205460ff16620000c5576000828152602081815260408083206001600160a01b03851684529091529020805460ff191660011790556200016e3390565b6001600160a01b0316816001600160a01b0316837f2f8788117e7eff1d82e926ec794901d17c78024a50270940304540a733656f0d60405160405180910390a45050565b6000620001c9836001600160a01b038416620001d2565b90505b92915050565b60008181526001830160205260408120546200021b57508154600181810184556000848152602080822090930184905584548482528286019093526040902091909155620001cc565b506000620001cc565b634e487b7160e01b600052604160045260246000fd5b600060208083850312156200024e57600080fd5b82516001600160401b03808211156200026657600080fd5b818501915085601f8301126200027b57600080fd5b81518181111562000290576200029062000224565b604051601f8201601f19908116603f01168101908382118183101715620002bb57620002bb62000224565b816040528281528886848701011115620002d457600080fd5b600093505b82841015620002f85784840186015181850187015292850192620002d9565b600086848301015280965050505050505092915050565b600181811c908216806200032457607f821691505b6020821081036200034557634e487b7160e01b600052602260045260246000fd5b50919050565b601f8211156200010d57600081815260208120601f850160051c81016020861015620003745750805b601f850160051c820191505b81811015620003955782815560010162000380565b505050505050565b81516001600160401b03811115620003b957620003b962000224565b620003d181620003ca84546200030f565b846200034b565b602080601f831160018114620004095760008415620003f05750858301515b600019600386901b1c1916600185901b17855562000395565b600085815260208120601f198616915b828110156200043a5788860151825594840194600190910190840162000419565b5085821015620004595787850151600019600388901b60f8161c191681555b5050505050600190811b01905550565b612ffd80620004796000396000f3fe608060405234801561001057600080fd5b50600436106101a25760003560e01c8063731133e9116100ee578063ca15c87311610097578063e63ab1e911610071578063e63ab1e9146103ac578063e985e9c5146103d3578063f242432a1461040f578063f5298aca1461042257600080fd5b8063ca15c8731461035f578063d539139314610372578063d547741f1461039957600080fd5b806391d14854116100c857806391d148541461030d578063a217fddf14610344578063a22cb4651461034c57600080fd5b8063731133e9146102c75780638456cb59146102da5780639010d07c146102e257600080fd5b80632f2ff15d116101505780634e1273f41161012a5780634e1273f4146102895780635c975abb146102a95780636b20c454146102b457600080fd5b80632f2ff15d1461025b57806336568abe1461026e5780633f4ba83a1461028157600080fd5b80631f7fdffa116101815780631f7fdffa14610210578063248a9ca3146102255780632eb2c2d61461024857600080fd5b8062fdd58e146101a757806301ffc9a7146101cd5780630e89341c146101f0575b600080fd5b6101ba6101b5366004612616565b610435565b6040519081526020015b60405180910390f35b6101e06101db366004612656565b6104e3565b60405190151581526020016101c4565b6102036101fe366004612673565b6104ee565b6040516101c491906126dc565b61022361021e36600461283b565b610582565b005b6101ba610233366004612673565b60009081526020819052604090206001015490565b6102236102563660046128d4565b610630565b61022361026936600461297e565b6106d2565b61022361027c36600461297e565b6106fc565b610223610788565b61029c6102973660046129aa565b61082e565b6040516101c49190612ab0565b60055460ff166101e0565b6102236102c2366004612ac3565b61096c565b6102236102d5366004612b37565b610a05565b610223610aad565b6102f56102f0366004612b8c565b610b51565b6040516001600160a01b0390911681526020016101c4565b6101e061031b36600461297e565b6000918252602082815260408084206001600160a01b0393909316845291905290205460ff1690565b6101ba600081565b61022361035a366004612bae565b610b70565b6101ba61036d366004612673565b610b7b565b6101ba7f9f2df0fed2c77648de5860a4cc508cd0818c85b8b8a1ab4ceeef8d981c8956a681565b6102236103a736600461297e565b610b92565b6101ba7f65d7a28e3265b37a6474929f336521b332c1681b933f6cb9f3376673440d862a81565b6101e06103e1366004612bea565b6001600160a01b03918216600090815260036020908152604080832093909416825291909152205460ff1690565b61022361041d366004612c14565b610bb7565b610223610430366004612c79565b610c52565b60006001600160a01b0383166104b85760405162461bcd60e51b815260206004820152602a60248201527f455243313135353a2061646472657373207a65726f206973206e6f742061207660448201527f616c6964206f776e65720000000000000000000000000000000000000000000060648201526084015b60405180910390fd5b5060008181526002602090815260408083206001600160a01b03861684529091529020545b92915050565b60006104dd82610d9e565b6060600480546104fd90612cac565b80601f016020809104026020016040519081016040528092919081815260200182805461052990612cac565b80156105765780601f1061054b57610100808354040283529160200191610576565b820191906000526020600020905b81548152906001019060200180831161055957829003601f168201915b50505050509050919050565b6105ac7f9f2df0fed2c77648de5860a4cc508cd0818c85b8b8a1ab4ceeef8d981c8956a63361031b565b61061e5760405162461bcd60e51b815260206004820152603860248201527f455243313135355072657365744d696e7465725061757365723a206d7573742060448201527f68617665206d696e74657220726f6c6520746f206d696e74000000000000000060648201526084016104af565b61062a84848484610e10565b50505050565b6001600160a01b03851633148061064c575061064c85336103e1565b6106be5760405162461bcd60e51b815260206004820152602e60248201527f455243313135353a2063616c6c6572206973206e6f7420746f6b656e206f776e60448201527f6572206f7220617070726f76656400000000000000000000000000000000000060648201526084016104af565b6106cb8585858585611002565b5050505050565b6000828152602081905260409020600101546106ed8161129c565b6106f783836112a9565b505050565b6001600160a01b038116331461077a5760405162461bcd60e51b815260206004820152602f60248201527f416363657373436f6e74726f6c3a2063616e206f6e6c792072656e6f756e636560448201527f20726f6c657320666f722073656c66000000000000000000000000000000000060648201526084016104af565b61078482826112cb565b5050565b6107b27f65d7a28e3265b37a6474929f336521b332c1681b933f6cb9f3376673440d862a3361031b565b6108245760405162461bcd60e51b815260206004820152603b60248201527f455243313135355072657365744d696e7465725061757365723a206d7573742060448201527f686176652070617573657220726f6c6520746f20756e7061757365000000000060648201526084016104af565b61082c6112ed565b565b606081518351146108a75760405162461bcd60e51b815260206004820152602960248201527f455243313135353a206163636f756e747320616e6420696473206c656e67746860448201527f206d69736d61746368000000000000000000000000000000000000000000000060648201526084016104af565b6000835167ffffffffffffffff8111156108c3576108c36126ef565b6040519080825280602002602001820160405280156108ec578160200160208202803683370190505b50905060005b84518110156109645761093785828151811061091057610910612ce6565b602002602001015185838151811061092a5761092a612ce6565b6020026020010151610435565b82828151811061094957610949612ce6565b602090810291909101015261095d81612d12565b90506108f2565b509392505050565b6001600160a01b038316331480610988575061098883336103e1565b6109fa5760405162461bcd60e51b815260206004820152602e60248201527f455243313135353a2063616c6c6572206973206e6f7420746f6b656e206f776e60448201527f6572206f7220617070726f76656400000000000000000000000000000000000060648201526084016104af565b6106f783838361133f565b610a2f7f9f2df0fed2c77648de5860a4cc508cd0818c85b8b8a1ab4ceeef8d981c8956a63361031b565b610aa15760405162461bcd60e51b815260206004820152603860248201527f455243313135355072657365744d696e7465725061757365723a206d7573742060448201527f68617665206d696e74657220726f6c6520746f206d696e74000000000000000060648201526084016104af565b61062a848484846115ca565b610ad77f65d7a28e3265b37a6474929f336521b332c1681b933f6cb9f3376673440d862a3361031b565b610b495760405162461bcd60e51b815260206004820152603960248201527f455243313135355072657365744d696e7465725061757365723a206d7573742060448201527f686176652070617573657220726f6c6520746f2070617573650000000000000060648201526084016104af565b61082c61170b565b6000828152600160205260408120610b699083611748565b9392505050565b610784338383611754565b60008181526001602052604081206104dd90611848565b600082815260208190526040902060010154610bad8161129c565b6106f783836112cb565b6001600160a01b038516331480610bd35750610bd385336103e1565b610c455760405162461bcd60e51b815260206004820152602e60248201527f455243313135353a2063616c6c6572206973206e6f7420746f6b656e206f776e60448201527f6572206f7220617070726f76656400000000000000000000000000000000000060648201526084016104af565b6106cb8585858585611852565b6001600160a01b038316331480610c6e5750610c6e83336103e1565b610ce05760405162461bcd60e51b815260206004820152602e60248201527f455243313135353a2063616c6c6572206973206e6f7420746f6b656e206f776e60448201527f6572206f7220617070726f76656400000000000000000000000000000000000060648201526084016104af565b6106f7838383611a3a565b6000828152602081815260408083206001600160a01b038516845290915290205460ff16610784576000828152602081815260408083206001600160a01b03851684529091529020805460ff19166001179055610d453390565b6001600160a01b0316816001600160a01b0316837f2f8788117e7eff1d82e926ec794901d17c78024a50270940304540a733656f0d60405160405180910390a45050565b6000610b69836001600160a01b038416611c01565b60006001600160e01b031982167fd9b67a26000000000000000000000000000000000000000000000000000000001480610e0157506001600160e01b031982167f0e89341c00000000000000000000000000000000000000000000000000000000145b806104dd57506104dd82611c50565b6001600160a01b038416610e8c5760405162461bcd60e51b815260206004820152602160248201527f455243313135353a206d696e7420746f20746865207a65726f2061646472657360448201527f730000000000000000000000000000000000000000000000000000000000000060648201526084016104af565b8151835114610eee5760405162461bcd60e51b815260206004820152602860248201527f455243313135353a2069647320616e6420616d6f756e7473206c656e677468206044820152670dad2e6dac2e8c6d60c31b60648201526084016104af565b33610efe81600087878787611c8e565b60005b8451811015610f9a57838181518110610f1c57610f1c612ce6565b602002602001015160026000878481518110610f3a57610f3a612ce6565b602002602001015181526020019081526020016000206000886001600160a01b03166001600160a01b031681526020019081526020016000206000828254610f829190612d2c565b90915550819050610f9281612d12565b915050610f01565b50846001600160a01b031660006001600160a01b0316826001600160a01b03167f4a39dc06d4c0dbc64b70af90fd698a233a518aa5d07e595d983b8c0526c8f7fb8787604051610feb929190612d3f565b60405180910390a46106cb81600087878787611c9c565b81518351146110645760405162461bcd60e51b815260206004820152602860248201527f455243313135353a2069647320616e6420616d6f756e7473206c656e677468206044820152670dad2e6dac2e8c6d60c31b60648201526084016104af565b6001600160a01b0384166110e05760405162461bcd60e51b815260206004820152602560248201527f455243313135353a207472616e7366657220746f20746865207a65726f20616460448201527f647265737300000000000000000000000000000000000000000000000000000060648201526084016104af565b336110ef818787878787611c8e565b60005b845181101561122e57600085828151811061110f5761110f612ce6565b60200260200101519050600085838151811061112d5761112d612ce6565b60209081029190910181015160008481526002835260408082206001600160a01b038e1683529093529190912054909150818110156111d45760405162461bcd60e51b815260206004820152602a60248201527f455243313135353a20696e73756666696369656e742062616c616e636520666f60448201527f72207472616e736665720000000000000000000000000000000000000000000060648201526084016104af565b60008381526002602090815260408083206001600160a01b038e8116855292528083208585039055908b16825281208054849290611213908490612d2c565b925050819055505050508061122790612d12565b90506110f2565b50846001600160a01b0316866001600160a01b0316826001600160a01b03167f4a39dc06d4c0dbc64b70af90fd698a233a518aa5d07e595d983b8c0526c8f7fb878760405161127e929190612d3f565b60405180910390a4611294818787878787611c9c565b505050505050565b6112a68133611e88565b50565b6112b38282610ceb565b60008281526001602052604090206106f79082610d89565b6112d58282611efb565b60008281526001602052604090206106f79082611f7a565b6112f5611f8f565b6005805460ff191690557f5db9ee0a495bf2e6ff9c91a7834c1ba4fdd244a5e8aa4e537bd38aeae4b073aa335b6040516001600160a01b03909116815260200160405180910390a1565b6001600160a01b0383166113bb5760405162461bcd60e51b815260206004820152602360248201527f455243313135353a206275726e2066726f6d20746865207a65726f206164647260448201527f657373000000000000000000000000000000000000000000000000000000000060648201526084016104af565b805182511461141d5760405162461bcd60e51b815260206004820152602860248201527f455243313135353a2069647320616e6420616d6f756e7473206c656e677468206044820152670dad2e6dac2e8c6d60c31b60648201526084016104af565b600033905061144081856000868660405180602001604052806000815250611c8e565b60005b835181101561155d57600084828151811061146057611460612ce6565b60200260200101519050600084838151811061147e5761147e612ce6565b60209081029190910181015160008481526002835260408082206001600160a01b038c1683529093529190912054909150818110156115245760405162461bcd60e51b8152602060048201526024808201527f455243313135353a206275726e20616d6f756e7420657863656564732062616c60448201527f616e63650000000000000000000000000000000000000000000000000000000060648201526084016104af565b60009283526002602090815260408085206001600160a01b038b168652909152909220910390558061155581612d12565b915050611443565b5060006001600160a01b0316846001600160a01b0316826001600160a01b03167f4a39dc06d4c0dbc64b70af90fd698a233a518aa5d07e595d983b8c0526c8f7fb86866040516115ae929190612d3f565b60405180910390a460408051602081019091526000905261062a565b6001600160a01b0384166116465760405162461bcd60e51b815260206004820152602160248201527f455243313135353a206d696e7420746f20746865207a65726f2061646472657360448201527f730000000000000000000000000000000000000000000000000000000000000060648201526084016104af565b33600061165285611fe1565b9050600061165f85611fe1565b905061167083600089858589611c8e565b60008681526002602090815260408083206001600160a01b038b168452909152812080548792906116a2908490612d2c565b909155505060408051878152602081018790526001600160a01b03808a1692600092918716917fc3d58168c5ae7397731d063d5bbf3d657854427343f4c083240f7aacaa2d0f62910160405180910390a46117028360008989898961202c565b50505050505050565b61171361216f565b6005805460ff191660011790557f62e78cea01bee320cd4e420270b5ea74000d11b0c9f74754ebdbfc544b05a2586113223390565b6000610b6983836121c2565b816001600160a01b0316836001600160a01b0316036117db5760405162461bcd60e51b815260206004820152602960248201527f455243313135353a2073657474696e6720617070726f76616c2073746174757360448201527f20666f722073656c66000000000000000000000000000000000000000000000060648201526084016104af565b6001600160a01b03838116600081815260036020908152604080832094871680845294825291829020805460ff191686151590811790915591519182527f17307eab39ab6107e8899845ad3d59bd9653f200f220920489ca2b5937696c31910160405180910390a3505050565b60006104dd825490565b6001600160a01b0384166118ce5760405162461bcd60e51b815260206004820152602560248201527f455243313135353a207472616e7366657220746f20746865207a65726f20616460448201527f647265737300000000000000000000000000000000000000000000000000000060648201526084016104af565b3360006118da85611fe1565b905060006118e785611fe1565b90506118f7838989858589611c8e565b60008681526002602090815260408083206001600160a01b038c168452909152902054858110156119905760405162461bcd60e51b815260206004820152602a60248201527f455243313135353a20696e73756666696369656e742062616c616e636520666f60448201527f72207472616e736665720000000000000000000000000000000000000000000060648201526084016104af565b60008781526002602090815260408083206001600160a01b038d8116855292528083208985039055908a168252812080548892906119cf908490612d2c565b909155505060408051888152602081018890526001600160a01b03808b16928c821692918816917fc3d58168c5ae7397731d063d5bbf3d657854427343f4c083240f7aacaa2d0f62910160405180910390a4611a2f848a8a8a8a8a61202c565b505050505050505050565b6001600160a01b038316611ab65760405162461bcd60e51b815260206004820152602360248201527f455243313135353a206275726e2066726f6d20746865207a65726f206164647260448201527f657373000000000000000000000000000000000000000000000000000000000060648201526084016104af565b336000611ac284611fe1565b90506000611acf84611fe1565b9050611aef83876000858560405180602001604052806000815250611c8e565b60008581526002602090815260408083206001600160a01b038a16845290915290205484811015611b875760405162461bcd60e51b8152602060048201526024808201527f455243313135353a206275726e20616d6f756e7420657863656564732062616c60448201527f616e63650000000000000000000000000000000000000000000000000000000060648201526084016104af565b60008681526002602090815260408083206001600160a01b038b81168086529184528285208a8703905582518b81529384018a90529092908816917fc3d58168c5ae7397731d063d5bbf3d657854427343f4c083240f7aacaa2d0f62910160405180910390a4604080516020810190915260009052611702565b6000818152600183016020526040812054611c48575081546001818101845560008481526020808220909301849055845484825282860190935260409020919091556104dd565b5060006104dd565b60006001600160e01b031982167f5a05180f0000000000000000000000000000000000000000000000000000000014806104dd57506104dd826121ec565b611294868686868686612253565b6001600160a01b0384163b15611294576040517fbc197c810000000000000000000000000000000000000000000000000000000081526001600160a01b0385169063bc197c8190611cf99089908990889088908890600401612d6d565b6020604051808303816000875af1925050508015611d34575060408051601f3d908101601f19168201909252611d3191810190612dcb565b60015b611de957611d40612de8565b806308c379a003611d795750611d54612e04565b80611d5f5750611d7b565b8060405162461bcd60e51b81526004016104af91906126dc565b505b60405162461bcd60e51b815260206004820152603460248201527f455243313135353a207472616e7366657220746f206e6f6e2d4552433131353560448201527f526563656976657220696d706c656d656e74657200000000000000000000000060648201526084016104af565b6001600160e01b031981167fbc197c8100000000000000000000000000000000000000000000000000000000146117025760405162461bcd60e51b815260206004820152602860248201527f455243313135353a204552433131353552656365697665722072656a6563746560448201527f6420746f6b656e7300000000000000000000000000000000000000000000000060648201526084016104af565b6000828152602081815260408083206001600160a01b038516845290915290205460ff1661078457611eb9816122cc565b611ec48360206122de565b604051602001611ed5929190612eac565b60408051601f198184030181529082905262461bcd60e51b82526104af916004016126dc565b6000828152602081815260408083206001600160a01b038516845290915290205460ff1615610784576000828152602081815260408083206001600160a01b0385168085529252808320805460ff1916905551339285917ff6391f5c32d9c69d2a47ea670b442974b53935d1edc7fd64eb21e047a839171b9190a45050565b6000610b69836001600160a01b038416612507565b60055460ff1661082c5760405162461bcd60e51b815260206004820152601460248201527f5061757361626c653a206e6f742070617573656400000000000000000000000060448201526064016104af565b6040805160018082528183019092526060916000919060208083019080368337019050509050828160008151811061201b5761201b612ce6565b602090810291909101015292915050565b6001600160a01b0384163b15611294576040517ff23a6e610000000000000000000000000000000000000000000000000000000081526001600160a01b0385169063f23a6e61906120899089908990889088908890600401612f2d565b6020604051808303816000875af19250505080156120c4575060408051601f3d908101601f191682019092526120c191810190612dcb565b60015b6120d057611d40612de8565b6001600160e01b031981167ff23a6e6100000000000000000000000000000000000000000000000000000000146117025760405162461bcd60e51b815260206004820152602860248201527f455243313135353a204552433131353552656365697665722072656a6563746560448201527f6420746f6b656e7300000000000000000000000000000000000000000000000060648201526084016104af565b60055460ff161561082c5760405162461bcd60e51b815260206004820152601060248201527f5061757361626c653a207061757365640000000000000000000000000000000060448201526064016104af565b60008260000182815481106121d9576121d9612ce6565b9060005260206000200154905092915050565b60006001600160e01b031982167f7965db0b0000000000000000000000000000000000000000000000000000000014806104dd57507f01ffc9a7000000000000000000000000000000000000000000000000000000006001600160e01b03198316146104dd565b60055460ff16156112945760405162461bcd60e51b815260206004820152602c60248201527f455243313135355061757361626c653a20746f6b656e207472616e736665722060448201527f7768696c6520706175736564000000000000000000000000000000000000000060648201526084016104af565b60606104dd6001600160a01b03831660145b606060006122ed836002612f70565b6122f8906002612d2c565b67ffffffffffffffff811115612310576123106126ef565b6040519080825280601f01601f19166020018201604052801561233a576020820181803683370190505b5090507f30000000000000000000000000000000000000000000000000000000000000008160008151811061237157612371612ce6565b60200101907effffffffffffffffffffffffffffffffffffffffffffffffffffffffffffff1916908160001a9053507f7800000000000000000000000000000000000000000000000000000000000000816001815181106123d4576123d4612ce6565b60200101907effffffffffffffffffffffffffffffffffffffffffffffffffffffffffffff1916908160001a9053506000612410846002612f70565b61241b906001612d2c565b90505b60018111156124b8577f303132333435363738396162636465660000000000000000000000000000000085600f166010811061245c5761245c612ce6565b1a60f81b82828151811061247257612472612ce6565b60200101907effffffffffffffffffffffffffffffffffffffffffffffffffffffffffffff1916908160001a90535060049490941c936124b181612f87565b905061241e565b508315610b695760405162461bcd60e51b815260206004820181905260248201527f537472696e67733a20686578206c656e67746820696e73756666696369656e7460448201526064016104af565b600081815260018301602052604081205480156125f057600061252b600183612f9e565b855490915060009061253f90600190612f9e565b90508181146125a457600086600001828154811061255f5761255f612ce6565b906000526020600020015490508087600001848154811061258257612582612ce6565b6000918252602080832090910192909255918252600188019052604090208390555b85548690806125b5576125b5612fb1565b6001900381819060005260206000200160009055905585600101600086815260200190815260200160002060009055600193505050506104dd565b60009150506104dd565b80356001600160a01b038116811461261157600080fd5b919050565b6000806040838503121561262957600080fd5b612632836125fa565b946020939093013593505050565b6001600160e01b0319811681146112a657600080fd5b60006020828403121561266857600080fd5b8135610b6981612640565b60006020828403121561268557600080fd5b5035919050565b60005b838110156126a757818101518382015260200161268f565b50506000910152565b600081518084526126c881602086016020860161268c565b601f01601f19169290920160200192915050565b602081526000610b6960208301846126b0565b634e487b7160e01b600052604160045260246000fd5b601f19601f830116810181811067ffffffffffffffff8211171561272b5761272b6126ef565b6040525050565b600067ffffffffffffffff82111561274c5761274c6126ef565b5060051b60200190565b600082601f83011261276757600080fd5b8135602061277482612732565b6040516127818282612705565b83815260059390931b85018201928281019150868411156127a157600080fd5b8286015b848110156127bc57803583529183019183016127a5565b509695505050505050565b600082601f8301126127d857600080fd5b813567ffffffffffffffff8111156127f2576127f26126ef565b6040516128096020601f19601f8501160182612705565b81815284602083860101111561281e57600080fd5b816020850160208301376000918101602001919091529392505050565b6000806000806080858703121561285157600080fd5b61285a856125fa565b9350602085013567ffffffffffffffff8082111561287757600080fd5b61288388838901612756565b9450604087013591508082111561289957600080fd5b6128a588838901612756565b935060608701359150808211156128bb57600080fd5b506128c8878288016127c7565b91505092959194509250565b600080600080600060a086880312156128ec57600080fd5b6128f5866125fa565b9450612903602087016125fa565b9350604086013567ffffffffffffffff8082111561292057600080fd5b61292c89838a01612756565b9450606088013591508082111561294257600080fd5b61294e89838a01612756565b9350608088013591508082111561296457600080fd5b50612971888289016127c7565b9150509295509295909350565b6000806040838503121561299157600080fd5b823591506129a1602084016125fa565b90509250929050565b600080604083850312156129bd57600080fd5b823567ffffffffffffffff808211156129d557600080fd5b818501915085601f8301126129e957600080fd5b813560206129f682612732565b604051612a038282612705565b83815260059390931b8501820192828101915089841115612a2357600080fd5b948201945b83861015612a4857612a39866125fa565b82529482019490820190612a28565b96505086013592505080821115612a5e57600080fd5b50612a6b85828601612756565b9150509250929050565b600081518084526020808501945080840160005b83811015612aa557815187529582019590820190600101612a89565b509495945050505050565b602081526000610b696020830184612a75565b600080600060608486031215612ad857600080fd5b612ae1846125fa565b9250602084013567ffffffffffffffff80821115612afe57600080fd5b612b0a87838801612756565b93506040860135915080821115612b2057600080fd5b50612b2d86828701612756565b9150509250925092565b60008060008060808587031215612b4d57600080fd5b612b56856125fa565b93506020850135925060408501359150606085013567ffffffffffffffff811115612b8057600080fd5b6128c8878288016127c7565b60008060408385031215612b9f57600080fd5b50508035926020909101359150565b60008060408385031215612bc157600080fd5b612bca836125fa565b915060208301358015158114612bdf57600080fd5b809150509250929050565b60008060408385031215612bfd57600080fd5b612c06836125fa565b91506129a1602084016125fa565b600080600080600060a08688031215612c2c57600080fd5b612c35866125fa565b9450612c43602087016125fa565b93506040860135925060608601359150608086013567ffffffffffffffff811115612c6d57600080fd5b612971888289016127c7565b600080600060608486031215612c8e57600080fd5b612c97846125fa565b95602085013595506040909401359392505050565b600181811c90821680612cc057607f821691505b602082108103612ce057634e487b7160e01b600052602260045260246000fd5b50919050565b634e487b7160e01b600052603260045260246000fd5b634e487b7160e01b600052601160045260246000fd5b60006000198203612d2557612d25612cfc565b5060010190565b808201808211156104dd576104dd612cfc565b604081526000612d526040830185612a75565b8281036020840152612d648185612a75565b95945050505050565b60006001600160a01b03808816835280871660208401525060a06040830152612d9960a0830186612a75565b8281036060840152612dab8186612a75565b90508281036080840152612dbf81856126b0565b98975050505050505050565b600060208284031215612ddd57600080fd5b8151610b6981612640565b600060033d1115612e015760046000803e5060005160e01c5b90565b600060443d1015612e125790565b6040517ffffffffffffffffffffffffffffffffffffffffffffffffffffffffffffffffc803d016004833e81513d67ffffffffffffffff8160248401118184111715612e6057505050505090565b8285019150815181811115612e785750505050505090565b843d8701016020828501011115612e925750505050505090565b612ea160208286010187612705565b509095945050505050565b7f416363657373436f6e74726f6c3a206163636f756e7420000000000000000000815260008351612ee481601785016020880161268c565b7f206973206d697373696e6720726f6c65200000000000000000000000000000006017918401918201528351612f2181602884016020880161268c565b01602801949350505050565b60006001600160a01b03808816835280871660208401525084604083015283606083015260a06080830152612f6560a08301846126b0565b979650505050505050565b80820281158282048414176104dd576104dd612cfc565b600081612f9657612f96612cfc565b506000190190565b818103818111156104dd576104dd612cfc565b634e487b7160e01b600052603160045260246000fdfea26469706673582212201cf3aecfa8224d315f7a9cca70941fc1d3c56f5520bb6c24b2133c85322c9b6764736f6c63430008110033a2646970667358221220eba65d00f62220da5e71f04f81ecd9e5219b6913f42f11a167e73dffe6bc31cf64736f6c63430008110033",
  "devdoc": {
    "author": "Rami Husami (gh: @t0mcr8se)",
    "details": "A contract for managing the claiming of allocated metis token and vesting of RMetis tokens, including claim and redeem functionalities.",
    "kind": "dev",
    "methods": {
      "acceptOwnership()": {
        "details": "The new owner accepts the ownership transfer."
      },
      "claim(uint256,bytes32[],uint256,uint256)": {
        "params": {
          "amount": "Amount of metis tokens allocated",
          "claimAmount": "Amount of allocated metis tokens to start redeeming",
          "merkleProof": "Merkle proof array for the msg.sender address",
          "redeemEnd": "The end timestamp for the redeem"
        }
      },
      "emergencyRecoverToken(address,uint256)": {
        "details": "This function can be only called by the owner"
      },
      "initialize(bytes32,uint256,uint256,uint256,uint256,uint256)": {
        "params": {
          "claimDeadline_": "Deadline for claiming rMetis airdrop",
          "cliffLength_": "The vesting cliff",
          "maxPrice_": "Value of 1 RMetis in Metis at or after the end of the vesting period * PRICE_PRECISION",
          "maxRedeemLength_": "; // The maximum possible period of vesting",
          "merkleRoot_": "Merkle root of the merkle tree for the airdrop",
          "minPrice_": "Value of 1 RMetis in Metis at the start of the vesting period * PRICE_PRECISION"
        }
      },
      "owner()": {
        "details": "Returns the address of the current owner."
      },
      "pause()": {
        "details": "This function can be only called by the owner"
      },
      "paused()": {
        "details": "Returns true if the contract is paused, and false otherwise."
      },
      "pendingOwner()": {
        "details": "Returns the address of the pending owner."
      },
      "priceRatioAt(uint256,uint256)": {
        "params": {
          "startDate": "the start date of the vesting",
          "timestamp": "The end date of the vesting"
        },
        "returns": {
          "_0": "price ratio"
        }
      },
      "redeem(uint256,uint256)": {
        "details": "this contract must be approved by user `msg.sender` to spend all",
        "params": {
          "amount": "The amount to redeem",
          "redeemId": "The id of the redemption"
        }
      },
      "renounceOwnership()": {
        "details": "Leaves the contract without owner. It will not be possible to call `onlyOwner` functions. Can only be called by the current owner. NOTE: Renouncing ownership will leave the contract without an owner, thereby disabling any functionality that is only available to the owner."
      },
      "transferOwnership(address)": {
        "details": "Starts the ownership transfer of the contract to a new account. Replaces the pending transfer if there is one. Can only be called by the current owner."
      },
      "unPause()": {
        "details": "This function can be only called by the owner"
      }
    },
    "title": "VestingVault",
    "version": 1
  },
  "userdoc": {
    "events": {
      "Claimed(address,uint256,uint256,uint256,uint256)": {
        "notice": "Event emitted when a claim is successful"
      },
      "ClaimedOwner(address,uint256)": {
        "notice": "Event emitted when the owner claims remaining tokens"
      },
      "Redeemed(address,uint256,uint256)": {
        "notice": "Event emitted when rMetis tokens are redeemed for Metis tokens"
      },
      "RedeemedSlashed(address,uint256,uint256)": {
        "notice": "Event emitted when the owner redeems slashed tokens"
      },
      "UnClaimed(uint256)": {
        "notice": "Event emitted when a claim is reversed"
      }
    },
    "kind": "user",
    "methods": {
      "claim(uint256,bytes32[],uint256,uint256)": {
        "notice": "Claim rMetis tokens from the airdrop"
      },
      "emergencyRecoverToken(address,uint256)": {
        "notice": "Recovers the funds sent to the contract in case of an emergency"
      },
      "initialize(bytes32,uint256,uint256,uint256,uint256,uint256)": {
        "notice": "Initialize the contract"
      },
      "pause()": {
        "notice": "Pause the contract"
      },
      "priceRatioAt(uint256,uint256)": {
        "notice": "Calculate the price ratio at `timestamp`"
      },
      "redeem(uint256,uint256)": {
        "notice": "Redeem metis tokens after the vesting period ends"
      },
      "unPause()": {
        "notice": "Unpause the contract"
      }
    },
    "version": 1
  },
  "storageLayout": {
    "storage": [
      {
        "astId": 546,
        "contract": "src/VestingVault/VestingVault.sol:VestingVault",
        "label": "_owner",
        "offset": 0,
        "slot": "0",
        "type": "t_address"
      },
      {
        "astId": 659,
        "contract": "src/VestingVault/VestingVault.sol:VestingVault",
        "label": "_pendingOwner",
        "offset": 0,
        "slot": "1",
        "type": "t_address"
      },
      {
        "astId": 921,
        "contract": "src/VestingVault/VestingVault.sol:VestingVault",
        "label": "_paused",
        "offset": 20,
        "slot": "1",
        "type": "t_bool"
      },
      {
        "astId": 741,
        "contract": "src/VestingVault/VestingVault.sol:VestingVault",
        "label": "_initialized",
        "offset": 21,
        "slot": "1",
        "type": "t_uint8"
      },
      {
        "astId": 744,
        "contract": "src/VestingVault/VestingVault.sol:VestingVault",
        "label": "_initializing",
        "offset": 22,
        "slot": "1",
        "type": "t_bool"
      },
      {
        "astId": 5886,
        "contract": "src/VestingVault/VestingVault.sol:VestingVault",
        "label": "rMetis",
        "offset": 0,
        "slot": "2",
        "type": "t_contract(ERC1155PresetMinterPauser)2727"
      },
      {
        "astId": 5888,
        "contract": "src/VestingVault/VestingVault.sol:VestingVault",
        "label": "merkleRoot",
        "offset": 0,
        "slot": "3",
        "type": "t_bytes32"
      },
      {
        "astId": 5890,
        "contract": "src/VestingVault/VestingVault.sol:VestingVault",
        "label": "claimDeadline",
        "offset": 0,
        "slot": "4",
        "type": "t_uint256"
      },
      {
        "astId": 5894,
        "contract": "src/VestingVault/VestingVault.sol:VestingVault",
        "label": "claimed",
        "offset": 0,
        "slot": "5",
        "type": "t_mapping(t_address,t_uint256)"
      },
      {
        "astId": 5899,
        "contract": "src/VestingVault/VestingVault.sol:VestingVault",
        "label": "redeems",
        "offset": 0,
        "slot": "6",
        "type": "t_mapping(t_uint256,t_struct(RedeemInfo)5880_storage)"
      },
      {
        "astId": 5902,
        "contract": "src/VestingVault/VestingVault.sol:VestingVault",
        "label": "redeemsCnt",
        "offset": 0,
        "slot": "7",
        "type": "t_uint256"
      },
      {
        "astId": 5904,
        "contract": "src/VestingVault/VestingVault.sol:VestingVault",
        "label": "minPrice",
        "offset": 0,
        "slot": "8",
        "type": "t_uint256"
      },
      {
        "astId": 5906,
        "contract": "src/VestingVault/VestingVault.sol:VestingVault",
        "label": "maxPrice",
        "offset": 0,
        "slot": "9",
        "type": "t_uint256"
      },
      {
        "astId": 5908,
        "contract": "src/VestingVault/VestingVault.sol:VestingVault",
        "label": "cliffLength",
        "offset": 0,
        "slot": "10",
        "type": "t_uint256"
      },
      {
        "astId": 5910,
        "contract": "src/VestingVault/VestingVault.sol:VestingVault",
        "label": "maxRedeemLength",
        "offset": 0,
        "slot": "11",
        "type": "t_uint256"
      },
      {
        "astId": 5912,
        "contract": "src/VestingVault/VestingVault.sol:VestingVault",
        "label": "currentSlashed",
        "offset": 0,
        "slot": "12",
        "type": "t_uint256"
      },
      {
        "astId": 5914,
        "contract": "src/VestingVault/VestingVault.sol:VestingVault",
        "label": "totalSlashed",
        "offset": 0,
        "slot": "13",
        "type": "t_uint256"
      }
    ],
    "types": {
      "t_address": {
        "encoding": "inplace",
        "label": "address",
        "numberOfBytes": "20"
      },
      "t_bool": {
        "encoding": "inplace",
        "label": "bool",
        "numberOfBytes": "1"
      },
      "t_bytes32": {
        "encoding": "inplace",
        "label": "bytes32",
        "numberOfBytes": "32"
      },
      "t_contract(ERC1155PresetMinterPauser)2727": {
        "encoding": "inplace",
        "label": "contract ERC1155PresetMinterPauser",
        "numberOfBytes": "20"
      },
      "t_mapping(t_address,t_uint256)": {
        "encoding": "mapping",
        "key": "t_address",
        "label": "mapping(address => uint256)",
        "numberOfBytes": "32",
        "value": "t_uint256"
      },
      "t_mapping(t_uint256,t_struct(RedeemInfo)5880_storage)": {
        "encoding": "mapping",
        "key": "t_uint256",
        "label": "mapping(uint256 => struct VestingVault.RedeemInfo)",
        "numberOfBytes": "32",
        "value": "t_struct(RedeemInfo)5880_storage"
      },
      "t_struct(RedeemInfo)5880_storage": {
        "encoding": "inplace",
        "label": "struct VestingVault.RedeemInfo",
        "members": [
          {
            "astId": 5875,
            "contract": "src/VestingVault/VestingVault.sol:VestingVault",
            "label": "redeemAmount",
            "offset": 0,
            "slot": "0",
            "type": "t_uint256"
          },
          {
            "astId": 5877,
            "contract": "src/VestingVault/VestingVault.sol:VestingVault",
            "label": "redeemEnd",
            "offset": 0,
            "slot": "1",
            "type": "t_uint256"
          },
          {
            "astId": 5879,
            "contract": "src/VestingVault/VestingVault.sol:VestingVault",
            "label": "claimAmount",
            "offset": 0,
            "slot": "2",
            "type": "t_uint256"
          }
        ],
        "numberOfBytes": "96"
      },
      "t_uint256": {
        "encoding": "inplace",
        "label": "uint256",
        "numberOfBytes": "32"
      },
      "t_uint8": {
        "encoding": "inplace",
        "label": "uint8",
        "numberOfBytes": "1"
      }
    }
  }
}