{
  "address": "0x15477D97DfbB979228DDc1BCbF3b05118F6b0E24",
  "abi": [
    {
      "inputs": [
        {
          "internalType": "bytes32",
          "name": "_merkleRoot",
          "type": "bytes32"
        },
        {
          "internalType": "uint256",
          "name": "_airdropDurationDays",
          "type": "uint256"
        },
        {
          "internalType": "uint256",
          "name": "_startDate",
          "type": "uint256"
        },
        {
          "internalType": "uint256",
          "name": "_endDate",
          "type": "uint256"
        },
        {
          "internalType": "uint256",
          "name": "_minPrice",
          "type": "uint256"
        },
        {
          "internalType": "uint256",
          "name": "_maxPrice",
          "type": "uint256"
        }
      ],
      "stateMutability": "nonpayable",
      "type": "constructor"
    },
    {
      "anonymous": false,
      "inputs": [
        {
          "indexed": true,
          "internalType": "address",
          "name": "account",
          "type": "address"
        },
        {
          "indexed": false,
          "internalType": "uint256",
          "name": "amount",
          "type": "uint256"
        }
      ],
      "name": "Claimed",
      "type": "event"
    },
    {
      "anonymous": false,
      "inputs": [
        {
          "indexed": true,
          "internalType": "address",
          "name": "account",
          "type": "address"
        },
        {
          "indexed": false,
          "internalType": "uint256",
          "name": "amount",
          "type": "uint256"
        }
      ],
      "name": "ClaimedOwner",
      "type": "event"
    },
    {
      "anonymous": false,
      "inputs": [
        {
          "indexed": true,
          "internalType": "address",
          "name": "previousOwner",
          "type": "address"
        },
        {
          "indexed": true,
          "internalType": "address",
          "name": "newOwner",
          "type": "address"
        }
      ],
      "name": "OwnershipTransferred",
      "type": "event"
    },
    {
      "anonymous": false,
      "inputs": [
        {
          "indexed": false,
          "internalType": "address",
          "name": "account",
          "type": "address"
        }
      ],
      "name": "Paused",
      "type": "event"
    },
    {
      "anonymous": false,
      "inputs": [
        {
          "indexed": true,
          "internalType": "address",
          "name": "account",
          "type": "address"
        },
        {
          "indexed": false,
          "internalType": "uint256",
          "name": "rMetisAmount",
          "type": "uint256"
        },
        {
          "indexed": false,
          "internalType": "uint256",
          "name": "ratio",
          "type": "uint256"
        }
      ],
      "name": "Redeemed",
      "type": "event"
    },
    {
      "anonymous": false,
      "inputs": [
        {
          "indexed": true,
          "internalType": "address",
          "name": "account",
          "type": "address"
        },
        {
          "indexed": false,
          "internalType": "uint256",
          "name": "amount",
          "type": "uint256"
        },
        {
          "indexed": false,
          "internalType": "uint256",
          "name": "totalSlashed",
          "type": "uint256"
        }
      ],
      "name": "RedeemedSlashed",
      "type": "event"
    },
    {
      "anonymous": false,
      "inputs": [
        {
          "indexed": false,
          "internalType": "address",
          "name": "account",
          "type": "address"
        }
      ],
      "name": "Unpaused",
      "type": "event"
    },
    {
      "inputs": [],
      "name": "DAY_SECONDS",
      "outputs": [
        {
          "internalType": "uint256",
          "name": "",
          "type": "uint256"
        }
      ],
      "stateMutability": "view",
      "type": "function"
    },
    {
      "inputs": [],
      "name": "PRICE_PRECISION",
      "outputs": [
        {
          "internalType": "uint256",
          "name": "",
          "type": "uint256"
        }
      ],
      "stateMutability": "view",
      "type": "function"
    },
    {
      "inputs": [
        {
          "internalType": "uint256",
          "name": "amount",
          "type": "uint256"
        },
        {
          "internalType": "bytes32[]",
          "name": "merkleProof",
          "type": "bytes32[]"
        }
      ],
      "name": "claim",
      "outputs": [],
      "stateMutability": "nonpayable",
      "type": "function"
    },
    {
      "inputs": [],
      "name": "claimDeadline",
      "outputs": [
        {
          "internalType": "uint256",
          "name": "",
          "type": "uint256"
        }
      ],
      "stateMutability": "view",
      "type": "function"
    },
    {
      "inputs": [],
      "name": "claimOwner",
      "outputs": [],
      "stateMutability": "nonpayable",
      "type": "function"
    },
    {
      "inputs": [
        {
          "internalType": "address",
          "name": "",
          "type": "address"
        }
      ],
      "name": "claimed",
      "outputs": [
        {
          "internalType": "bool",
          "name": "",
          "type": "bool"
        }
      ],
      "stateMutability": "view",
      "type": "function"
    },
    {
      "inputs": [],
      "name": "currentSlashed",
      "outputs": [
        {
          "internalType": "uint256",
          "name": "",
          "type": "uint256"
        }
      ],
      "stateMutability": "view",
      "type": "function"
    },
    {
      "inputs": [],
      "name": "deposit",
      "outputs": [],
      "stateMutability": "payable",
      "type": "function"
    },
    {
      "inputs": [
        {
          "internalType": "address",
          "name": "_token",
          "type": "address"
        },
        {
          "internalType": "uint256",
          "name": "_amount",
          "type": "uint256"
        }
      ],
      "name": "emergencyRecoverToken",
      "outputs": [],
      "stateMutability": "nonpayable",
      "type": "function"
    },
    {
      "inputs": [],
      "name": "endDate",
      "outputs": [
        {
          "internalType": "uint256",
          "name": "",
          "type": "uint256"
        }
      ],
      "stateMutability": "view",
      "type": "function"
    },
    {
      "inputs": [],
      "name": "maxPrice",
      "outputs": [
        {
          "internalType": "uint256",
          "name": "",
          "type": "uint256"
        }
      ],
      "stateMutability": "view",
      "type": "function"
    },
    {
      "inputs": [],
      "name": "merkleRoot",
      "outputs": [
        {
          "internalType": "bytes32",
          "name": "",
          "type": "bytes32"
        }
      ],
      "stateMutability": "view",
      "type": "function"
    },
    {
      "inputs": [],
      "name": "minPrice",
      "outputs": [
        {
          "internalType": "uint256",
          "name": "",
          "type": "uint256"
        }
      ],
      "stateMutability": "view",
      "type": "function"
    },
    {
      "inputs": [],
      "name": "owner",
      "outputs": [
        {
          "internalType": "address",
          "name": "",
          "type": "address"
        }
      ],
      "stateMutability": "view",
      "type": "function"
    },
    {
      "inputs": [],
      "name": "pause",
      "outputs": [],
      "stateMutability": "nonpayable",
      "type": "function"
    },
    {
      "inputs": [],
      "name": "paused",
      "outputs": [
        {
          "internalType": "bool",
          "name": "",
          "type": "bool"
        }
      ],
      "stateMutability": "view",
      "type": "function"
    },
    {
      "inputs": [],
      "name": "priceRatio",
      "outputs": [
        {
          "internalType": "uint256",
          "name": "",
          "type": "uint256"
        }
      ],
      "stateMutability": "view",
      "type": "function"
    },
    {
      "inputs": [],
      "name": "rMetis",
      "outputs": [
        {
          "internalType": "contract RMetis",
          "name": "",
          "type": "address"
        }
      ],
      "stateMutability": "view",
      "type": "function"
    },
    {
      "inputs": [
        {
          "internalType": "uint256",
          "name": "amount",
          "type": "uint256"
        }
      ],
      "name": "redeem",
      "outputs": [],
      "stateMutability": "nonpayable",
      "type": "function"
    },
    {
      "inputs": [],
      "name": "redeemSlashed",
      "outputs": [],
      "stateMutability": "nonpayable",
      "type": "function"
    },
    {
      "inputs": [],
      "name": "renounceOwnership",
      "outputs": [],
      "stateMutability": "nonpayable",
      "type": "function"
    },
    {
      "inputs": [],
      "name": "startDate",
      "outputs": [
        {
          "internalType": "uint256",
          "name": "",
          "type": "uint256"
        }
      ],
      "stateMutability": "view",
      "type": "function"
    },
    {
      "inputs": [],
      "name": "totalSlashed",
      "outputs": [
        {
          "internalType": "uint256",
          "name": "",
          "type": "uint256"
        }
      ],
      "stateMutability": "view",
      "type": "function"
    },
    {
      "inputs": [
        {
          "internalType": "address",
          "name": "newOwner",
          "type": "address"
        }
      ],
      "name": "transferOwnership",
      "outputs": [],
      "stateMutability": "nonpayable",
      "type": "function"
    },
    {
      "inputs": [],
      "name": "unPause",
      "outputs": [],
      "stateMutability": "nonpayable",
      "type": "function"
    }
  ],
  "transactionHash": "0x65409672784c254c3f2d183434ed67402dd9f97229afcac0b02c5ace1d67b9b7",
  "args": [
    "0x19580de0fa0a21407a6085b0d0babe5aacedaaeb6cdd396a53f8d2d26298de78",
    "1",
    "1692104400",
    "1692266400",
    "5000",
    "10000"
  ],
  "numDeployments": 1,
  "solcInputHash": "8acc6f01f14d44c611a2b2036cff2af5",
  "bytecode": "0x60806040523480156200001157600080fd5b50604051620028c2380380620028c2833981016040819052620000349162000276565b6200003f3362000218565b600180556002805460ff191690556040516200005b9062000268565b604051809103906000f08015801562000078573d6000803e3d6000fd5b50600280546001600160a01b039290921661010002610100600160a81b03199092169190911790556003869055620000b46201518086620002d7565b620000c09042620002f7565b60048190554210620001295760405162461bcd60e51b815260206004820152602760248201527f56657374696e675661756c743a20496e76616c69642061697264726f702064756044820152663930ba34b7b71760c91b60648201526084015b60405180910390fd5b828410620001885760405162461bcd60e51b815260206004820152602560248201527f56657374696e675661756c743a20496e76616c69642076657374696e672070656044820152643934b7b21760d91b606482015260840162000120565b6006849055600783905560095460085411801590620001ab575061271060095411155b620002045760405162461bcd60e51b815260206004820152602260248201527f56657374696e675661756c743a20496e76616c69642070726963652072616e67604482015261329760f11b606482015260840162000120565b600891909155600955506200030d92505050565b600080546001600160a01b038381166001600160a01b0319831681178455604051919092169283917f8be0079c531659141344cd1fd0a4f28419497f9722a3daafe3b4186f6b6457e09190a35050565b611080806200184283390190565b60008060008060008060c087890312156200029057600080fd5b865195506020870151945060408701519350606087015192506080870151915060a087015190509295509295509295565b634e487b7160e01b600052601160045260246000fd5b8082028115828204841417620002f157620002f1620002c1565b92915050565b80820180821115620002f157620002f1620002c1565b611525806200031d6000396000f3fe6080604052600436106101965760003560e01c80638da5cb5b116100e1578063c884ef831161008a578063e38d6b5c11610064578063e38d6b5c146103e1578063e45be8eb146103f7578063f2fde38b1461040d578063f7b188a51461042d57600080fd5b8063c884ef8314610389578063d0e30db0146103b9578063db006a75146103c157600080fd5b8063a201bbdd116100bb578063a201bbdd14610348578063b944e4d91461035e578063c24a0f8b1461037357600080fd5b80638da5cb5b146102fe57806395082d251461031c5780639e137b4e1461033257600080fd5b80633bd1adec11610143578063715018a61161011d578063715018a6146102b457806379020194146102c95780638456cb59146102e957600080fd5b80633bd1adec1461026457806358e6d53c146102795780635c975abb1461029057600080fd5b80632eb4a7ab116101745780632eb4a7ab146102165780632f52ebb71461022c5780633ba86c441461024e57600080fd5b80630aa2f4201461019b5780630b97bc86146101c35780632460eba2146101d9575b600080fd5b3480156101a757600080fd5b506101b0610442565b6040519081526020015b60405180910390f35b3480156101cf57600080fd5b506101b060065481565b3480156101e557600080fd5b506002546101fe9061010090046001600160a01b031681565b6040516001600160a01b0390911681526020016101ba565b34801561022257600080fd5b506101b060035481565b34801561023857600080fd5b5061024c6102473660046112f1565b6104c2565b005b34801561025a57600080fd5b506101b060045481565b34801561027057600080fd5b5061024c610793565b34801561028557600080fd5b506101b06201518081565b34801561029c57600080fd5b5060025460ff165b60405190151581526020016101ba565b3480156102c057600080fd5b5061024c610952565b3480156102d557600080fd5b5061024c6102e436600461138c565b610966565b3480156102f557600080fd5b5061024c6109e4565b34801561030a57600080fd5b506000546001600160a01b03166101fe565b34801561032857600080fd5b506101b061271081565b34801561033e57600080fd5b506101b0600a5481565b34801561035457600080fd5b506101b0600b5481565b34801561036a57600080fd5b5061024c6109f4565b34801561037f57600080fd5b506101b060075481565b34801561039557600080fd5b506102a46103a43660046113b6565b60056020526000908152604090205460ff1681565b61024c610a8b565b3480156103cd57600080fd5b5061024c6103dc3660046113d1565b610b0f565b3480156103ed57600080fd5b506101b060095481565b34801561040357600080fd5b506101b060085481565b34801561041957600080fd5b5061024c6104283660046113b6565b610d84565b34801561043957600080fd5b5061024c610e11565b60006006544210156104545750600090565b6000600654426104649190611400565b905060006006546007546104789190611400565b9050600060085460095461048c9190611400565b90506104ba6104a58361049f8487610e21565b90610e36565b6008546104b29190611413565b600954610e42565b935050505090565b6104ca610e58565b60408051336020820152908101849052600090606001604080517fffffffffffffffffffffffffffffffffffffffffffffffffffffffffffffffe08184030181528282528051602091820120908301520160405160208183030381529060405280519060200120905060045442106105af5760405162461bcd60e51b815260206004820152602860248201527f56657374696e675661756c743a20436c61696d20646561646c696e652068617360448201527f207061737365642e00000000000000000000000000000000000000000000000060648201526084015b60405180910390fd5b6105f0838380806020026020016040519081016040528093929190818152602001838360200280828437600092019190915250506003549150849050610eab565b61063c5760405162461bcd60e51b815260206004820152601c60248201527f56657374696e675661756c743a20496e76616c69642070726f6f662e0000000060448201526064016105a6565b3360009081526005602052604090205460ff16156106c25760405162461bcd60e51b815260206004820152602360248201527f56657374696e675661756c743a2044726f7020616c726561647920636c61696d60448201527f65642e000000000000000000000000000000000000000000000000000000000060648201526084016105a6565b3360008181526005602052604090819020805460ff19166001179055600254905163a9059cbb60e01b815260048101929092526024820186905261010090046001600160a01b03169063a9059cbb906044016020604051808303816000875af1158015610733573d6000803e3d6000fd5b505050506040513d601f19601f820116820180604052508101906107579190611426565b5060405184815233907fd8138f8a3f377c5259ca548e70e4c2de94f129f5a11036a15b69513cba2b426a9060200160405180910390a250505050565b61079b610ec1565b6004544210156108135760405162461bcd60e51b815260206004820152602c60248201527f56657374696e675661756c743a20436c61696d20646561646c696e652068617360448201527f206e6f74207061737365642e000000000000000000000000000000000000000060648201526084016105a6565b6002546040517f70a0823100000000000000000000000000000000000000000000000000000000815230600482015260009161010090046001600160a01b0316906370a0823190602401602060405180830381865afa15801561087a573d6000803e3d6000fd5b505050506040513d601f19601f8201168201806040525081019061089e919061144f565b60025460405163a9059cbb60e01b81523360048201526024810183905291925061010090046001600160a01b03169063a9059cbb906044016020604051808303816000875af11580156108f5573d6000803e3d6000fd5b505050506040513d601f19601f820116820180604052508101906109199190611426565b5060405181815233907f6123a94b22513170bcdc47366f3a1f7a927377a272462e97605d34c7e2e2d2c59060200160405180910390a250565b61095a610ec1565b6109646000610f1b565b565b61096e610ec1565b60405163a9059cbb60e01b8152336004820152602481018290526001600160a01b0383169063a9059cbb906044016020604051808303816000875af11580156109bb573d6000803e3d6000fd5b505050506040513d601f19601f820116820180604052508101906109df9190611426565b505050565b6109ec610ec1565b610964610f83565b6109fc610ec1565b610a04610fdd565b600a80546000918290556040519091339183156108fc0291849190818181858888f19350505050158015610a3c573d6000803e3d6000fd5b50600b5460405133917fc66b86fb07910bdaeb76c786f74d8630b273dd2140b9f2ab160e9380d83dacff91610a7991858252602082015260400190565b60405180910390a25061096460018055565b610a93610ec1565b6002546040517fa0712d680000000000000000000000000000000000000000000000000000000081523460048201526101009091046001600160a01b03169063a0712d6890602401600060405180830381600087803b158015610af557600080fd5b505af1158015610b09573d6000803e3d6000fd5b50505050565b610b17610fdd565b610b1f610e58565b600654421015610b975760405162461bcd60e51b815260206004820152602d60248201527f56657374696e675661756c743a2056657374696e6720706572696f642068617360448201527f206e6f7420737461727465642e0000000000000000000000000000000000000060648201526084016105a6565b60008111610c0d5760405162461bcd60e51b815260206004820152602c60248201527f56657374696e675661756c743a20416d6f756e74206d7573742062652067726560448201527f61746572207468616e20302e000000000000000000000000000000000000000060648201526084016105a6565b6002546040517f70a08231000000000000000000000000000000000000000000000000000000008152336004820152829161010090046001600160a01b0316906370a0823190602401602060405180830381865afa158015610c73573d6000803e3d6000fd5b505050506040513d601f19601f82011682018060405250810190610c97919061144f565b1015610d0b5760405162461bcd60e51b815260206004820152602a60248201527f56657374696e675661756c743a20496e73756666696369656e7420724d65746960448201527f732062616c616e63652e0000000000000000000000000000000000000000000060648201526084016105a6565b600080546001600160a01b03163314610d2b57610d26610442565b610d2f565b6127105b9050610d3c338383611036565b604080518381526020810183905233917ff3a670cd3af7d64b488926880889d08a8585a138ff455227af6737339a1ec262910160405180910390a250610d8160018055565b50565b610d8c610ec1565b6001600160a01b038116610e085760405162461bcd60e51b815260206004820152602660248201527f4f776e61626c653a206e6577206f776e657220697320746865207a65726f206160448201527f646472657373000000000000000000000000000000000000000000000000000060648201526084016105a6565b610d8181610f1b565b610e19610ec1565b6109646111d2565b6000610e2d8284611468565b90505b92915050565b6000610e2d828461147f565b6000818310610e515781610e2d565b5090919050565b60025460ff16156109645760405162461bcd60e51b815260206004820152601060248201527f5061757361626c653a207061757365640000000000000000000000000000000060448201526064016105a6565b600082610eb8858461120b565b14949350505050565b6000546001600160a01b031633146109645760405162461bcd60e51b815260206004820181905260248201527f4f776e61626c653a2063616c6c6572206973206e6f7420746865206f776e657260448201526064016105a6565b600080546001600160a01b038381167fffffffffffffffffffffffff0000000000000000000000000000000000000000831681178455604051919092169283917f8be0079c531659141344cd1fd0a4f28419497f9722a3daafe3b4186f6b6457e09190a35050565b610f8b610e58565b6002805460ff191660011790557f62e78cea01bee320cd4e420270b5ea74000d11b0c9f74754ebdbfc544b05a258610fc03390565b6040516001600160a01b03909116815260200160405180910390a1565b60026001540361102f5760405162461bcd60e51b815260206004820152601f60248201527f5265656e7472616e637947756172643a207265656e7472616e742063616c6c0060448201526064016105a6565b6002600155565b600061104861271061049f8585610e21565b6002546040517f23b872dd0000000000000000000000000000000000000000000000000000000081526001600160a01b03878116600483015230602483015260448201879052929350610100909104909116906323b872dd906064016020604051808303816000875af11580156110c3573d6000803e3d6000fd5b505050506040513d601f19601f820116820180604052508101906110e79190611426565b506002546040517f42966c68000000000000000000000000000000000000000000000000000000008152600481018590526101009091046001600160a01b0316906342966c6890602401600060405180830381600087803b15801561114b57600080fd5b505af115801561115f573d6000803e3d6000fd5b50506040516001600160a01b038716925083156108fc02915083906000818181858888f19350505050158015611199573d6000803e3d6000fd5b506111b06111a78285611258565b600a5490611264565b600a556111c96111c08285611258565b600b5490611264565b600b5550505050565b6111da611270565b6002805460ff191690557f5db9ee0a495bf2e6ff9c91a7834c1ba4fdd244a5e8aa4e537bd38aeae4b073aa33610fc0565b600081815b84518110156112505761123c8286838151811061122f5761122f6114a1565b60200260200101516112c2565b915080611248816114b7565b915050611210565b509392505050565b6000610e2d8284611400565b6000610e2d8284611413565b60025460ff166109645760405162461bcd60e51b815260206004820152601460248201527f5061757361626c653a206e6f742070617573656400000000000000000000000060448201526064016105a6565b60008183106112de576000828152602084905260409020610e2d565b6000838152602083905260409020610e2d565b60008060006040848603121561130657600080fd5b83359250602084013567ffffffffffffffff8082111561132557600080fd5b818601915086601f83011261133957600080fd5b81358181111561134857600080fd5b8760208260051b850101111561135d57600080fd5b6020830194508093505050509250925092565b80356001600160a01b038116811461138757600080fd5b919050565b6000806040838503121561139f57600080fd5b6113a883611370565b946020939093013593505050565b6000602082840312156113c857600080fd5b610e2d82611370565b6000602082840312156113e357600080fd5b5035919050565b634e487b7160e01b600052601160045260246000fd5b81810381811115610e3057610e306113ea565b80820180821115610e3057610e306113ea565b60006020828403121561143857600080fd5b8151801515811461144857600080fd5b9392505050565b60006020828403121561146157600080fd5b5051919050565b8082028115828204841417610e3057610e306113ea565b60008261149c57634e487b7160e01b600052601260045260246000fd5b500490565b634e487b7160e01b600052603260045260246000fd5b60007fffffffffffffffffffffffffffffffffffffffffffffffffffffffffffffffff82036114e8576114e86113ea565b506001019056fea26469706673582212202d6798ca4ae55186f79b71c74afb62adc97d74219d8a77789c124c564d4087b764736f6c6343000811003360806040523480156200001157600080fd5b506040518060400160405280600d81526020016c2932a6b2ba34b9902a37b5b2b760991b81525060405180604001604052806006815260200165724d6574697360d01b815250816003908162000068919062000195565b50600462000077828262000195565b505050620000946200008e6200009a60201b60201c565b6200009e565b62000261565b3390565b600580546001600160a01b038381166001600160a01b0319831681179093556040519116919082907f8be0079c531659141344cd1fd0a4f28419497f9722a3daafe3b4186f6b6457e090600090a35050565b634e487b7160e01b600052604160045260246000fd5b600181811c908216806200011b57607f821691505b6020821081036200013c57634e487b7160e01b600052602260045260246000fd5b50919050565b601f8211156200019057600081815260208120601f850160051c810160208610156200016b5750805b601f850160051c820191505b818110156200018c5782815560010162000177565b5050505b505050565b81516001600160401b03811115620001b157620001b1620000f0565b620001c981620001c2845462000106565b8462000142565b602080601f831160018114620002015760008415620001e85750858301515b600019600386901b1c1916600185901b1785556200018c565b600085815260208120601f198616915b82811015620002325788860151825594840194600190910190840162000211565b5085821015620002515787850151600019600388901b60f8161c191681555b5050505050600190811b01905550565b610e0f80620002716000396000f3fe608060405234801561001057600080fd5b50600436106101005760003560e01c8063715018a611610097578063a457c2d711610066578063a457c2d714610209578063a9059cbb1461021c578063dd62ed3e1461022f578063f2fde38b1461026857600080fd5b8063715018a6146101cb5780638da5cb5b146101d357806395d89b41146101ee578063a0712d68146101f657600080fd5b8063313ce567116100d3578063313ce5671461016b578063395093511461017a57806342966c681461018d57806370a08231146101a257600080fd5b806306fdde0314610105578063095ea7b31461012357806318160ddd1461014657806323b872dd14610158575b600080fd5b61010d61027b565b60405161011a9190610bf0565b60405180910390f35b610136610131366004610c78565b61030d565b604051901515815260200161011a565b6002545b60405190815260200161011a565b610136610166366004610ca2565b610327565b6040516012815260200161011a565b610136610188366004610c78565b61034b565b6101a061019b366004610cde565b61038a565b005b61014a6101b0366004610cf7565b6001600160a01b031660009081526020819052604090205490565b6101a0610397565b6005546040516001600160a01b03909116815260200161011a565b61010d6103ab565b6101a0610204366004610cde565b6103ba565b610136610217366004610c78565b6103cc565b61013661022a366004610c78565b61047b565b61014a61023d366004610d19565b6001600160a01b03918216600090815260016020908152604080832093909416825291909152205490565b6101a0610276366004610cf7565b610489565b60606003805461028a90610d4c565b80601f01602080910402602001604051908101604052809291908181526020018280546102b690610d4c565b80156103035780601f106102d857610100808354040283529160200191610303565b820191906000526020600020905b8154815290600101906020018083116102e657829003601f168201915b5050505050905090565b60003361031b818585610516565b60019150505b92915050565b60003361033585828561066f565b61034085858561071f565b506001949350505050565b3360008181526001602090815260408083206001600160a01b038716845290915281205490919061031b9082908690610385908790610d9f565b610516565b610394338261090c565b50565b61039f610a6d565b6103a96000610ac7565b565b60606004805461028a90610d4c565b6103c2610a6d565b6103943382610b31565b3360008181526001602090815260408083206001600160a01b03871684529091528120549091908381101561046e5760405162461bcd60e51b815260206004820152602560248201527f45524332303a2064656372656173656420616c6c6f77616e63652062656c6f7760448201527f207a65726f00000000000000000000000000000000000000000000000000000060648201526084015b60405180910390fd5b6103408286868403610516565b60003361031b81858561071f565b610491610a6d565b6001600160a01b03811661050d5760405162461bcd60e51b815260206004820152602660248201527f4f776e61626c653a206e6577206f776e657220697320746865207a65726f206160448201527f64647265737300000000000000000000000000000000000000000000000000006064820152608401610465565b61039481610ac7565b6001600160a01b0383166105915760405162461bcd60e51b8152602060048201526024808201527f45524332303a20617070726f76652066726f6d20746865207a65726f2061646460448201527f72657373000000000000000000000000000000000000000000000000000000006064820152608401610465565b6001600160a01b03821661060d5760405162461bcd60e51b815260206004820152602260248201527f45524332303a20617070726f766520746f20746865207a65726f20616464726560448201527f73730000000000000000000000000000000000000000000000000000000000006064820152608401610465565b6001600160a01b0383811660008181526001602090815260408083209487168084529482529182902085905590518481527f8c5be1e5ebec7d5bd14f71427d1e84f3dd0314c0f7b2291e5b200ac8c7c3b92591015b60405180910390a3505050565b6001600160a01b038381166000908152600160209081526040808320938616835292905220547fffffffffffffffffffffffffffffffffffffffffffffffffffffffffffffffff8114610719578181101561070c5760405162461bcd60e51b815260206004820152601d60248201527f45524332303a20696e73756666696369656e7420616c6c6f77616e63650000006044820152606401610465565b6107198484848403610516565b50505050565b6001600160a01b03831661079b5760405162461bcd60e51b815260206004820152602560248201527f45524332303a207472616e736665722066726f6d20746865207a65726f20616460448201527f64726573730000000000000000000000000000000000000000000000000000006064820152608401610465565b6001600160a01b0382166108175760405162461bcd60e51b815260206004820152602360248201527f45524332303a207472616e7366657220746f20746865207a65726f206164647260448201527f65737300000000000000000000000000000000000000000000000000000000006064820152608401610465565b6001600160a01b038316600090815260208190526040902054818110156108a65760405162461bcd60e51b815260206004820152602660248201527f45524332303a207472616e7366657220616d6f756e742065786365656473206260448201527f616c616e636500000000000000000000000000000000000000000000000000006064820152608401610465565b6001600160a01b03848116600081815260208181526040808320878703905593871680835291849020805487019055925185815290927fddf252ad1be2c89b69c2b068fc378daa952ba7f163c4a11628f55a4df523b3ef910160405180910390a3610719565b6001600160a01b0382166109885760405162461bcd60e51b815260206004820152602160248201527f45524332303a206275726e2066726f6d20746865207a65726f2061646472657360448201527f73000000000000000000000000000000000000000000000000000000000000006064820152608401610465565b6001600160a01b03821660009081526020819052604090205481811015610a175760405162461bcd60e51b815260206004820152602260248201527f45524332303a206275726e20616d6f756e7420657863656564732062616c616e60448201527f63650000000000000000000000000000000000000000000000000000000000006064820152608401610465565b6001600160a01b0383166000818152602081815260408083208686039055600280548790039055518581529192917fddf252ad1be2c89b69c2b068fc378daa952ba7f163c4a11628f55a4df523b3ef9101610662565b6005546001600160a01b031633146103a95760405162461bcd60e51b815260206004820181905260248201527f4f776e61626c653a2063616c6c6572206973206e6f7420746865206f776e65726044820152606401610465565b600580546001600160a01b038381167fffffffffffffffffffffffff0000000000000000000000000000000000000000831681179093556040519116919082907f8be0079c531659141344cd1fd0a4f28419497f9722a3daafe3b4186f6b6457e090600090a35050565b6001600160a01b038216610b875760405162461bcd60e51b815260206004820152601f60248201527f45524332303a206d696e7420746f20746865207a65726f2061646472657373006044820152606401610465565b8060026000828254610b999190610d9f565b90915550506001600160a01b038216600081815260208181526040808320805486019055518481527fddf252ad1be2c89b69c2b068fc378daa952ba7f163c4a11628f55a4df523b3ef910160405180910390a35050565b600060208083528351808285015260005b81811015610c1d57858101830151858201604001528201610c01565b5060006040828601015260407fffffffffffffffffffffffffffffffffffffffffffffffffffffffffffffffe0601f8301168501019250505092915050565b80356001600160a01b0381168114610c7357600080fd5b919050565b60008060408385031215610c8b57600080fd5b610c9483610c5c565b946020939093013593505050565b600080600060608486031215610cb757600080fd5b610cc084610c5c565b9250610cce60208501610c5c565b9150604084013590509250925092565b600060208284031215610cf057600080fd5b5035919050565b600060208284031215610d0957600080fd5b610d1282610c5c565b9392505050565b60008060408385031215610d2c57600080fd5b610d3583610c5c565b9150610d4360208401610c5c565b90509250929050565b600181811c90821680610d6057607f821691505b602082108103610d99577f4e487b7100000000000000000000000000000000000000000000000000000000600052602260045260246000fd5b50919050565b80820180821115610321577f4e487b7100000000000000000000000000000000000000000000000000000000600052601160045260246000fdfea264697066735822122031768a3e8c72ce919266a421fcb295a308f86b103cbc6c710a8294143ec3871964736f6c63430008110033",
  "devdoc": {
    "author": "Rami Husami (gh: @t0mcr8se)",
    "details": "A contract for managing the vesting of RMetis tokens, including claim and redeem functionalities.",
    "kind": "dev",
    "methods": {
      "claim(uint256,bytes32[])": {
        "params": {
          "amount": "Amount of rMetis tokens to claim",
          "merkleProof": "Merkle proof of the address"
        }
      },
      "claimOwner()": {
        "details": "This function can be only called by the owner after the claiming period is over to recover the unclaimable rMetis tokens"
      },
      "constructor": {
        "details": "The msg.value should exactly match the sum in the merkle tree",
        "params": {
          "_airdropDurationDays": "Duration of the airdrop in days",
          "_endDate": "End date of the vesting period",
          "_maxPrice": "Value of 1 RMetis in Metis at or after the end of the vesting period * PRICE_PRECISION",
          "_merkleRoot": "Merkle root of the merkle tree for the airdrop",
          "_minPrice": "Value of 1 RMetis in Metis at the start of the vesting period * PRICE_PRECISION",
          "_startDate": "Start date of the vesting period"
        }
      },
      "deposit()": {
        "details": "The msg.value should exactly match the sum in the merkle tree"
      },
      "emergencyRecoverToken(address,uint256)": {
        "details": "This function can be only called by the owner"
      },
      "owner()": {
        "details": "Returns the address of the current owner."
      },
      "pause()": {
        "details": "This function can be only called by the owner"
      },
      "paused()": {
        "details": "Returns true if the contract is paused, and false otherwise."
      },
      "priceRatio()": {
        "returns": {
          "_0": "Current price ratio"
        }
      },
      "redeem(uint256)": {
        "params": {
          "amount": "Amount of rMetis tokens to redeem"
        }
      },
      "redeemSlashed()": {
        "details": "This function can be only called by the owner to recover the slashed Metis tokens"
      },
      "renounceOwnership()": {
        "details": "Leaves the contract without owner. It will not be possible to call `onlyOwner` functions. Can only be called by the current owner. NOTE: Renouncing ownership will leave the contract without an owner, thereby disabling any functionality that is only available to the owner."
      },
      "transferOwnership(address)": {
        "details": "Transfers ownership of the contract to a new account (`newOwner`). Can only be called by the current owner."
      },
      "unPause()": {
        "details": "This function can be only called by the owner"
      }
    },
    "title": "VestingVault",
    "version": 1
  },
  "userdoc": {
    "events": {
      "Claimed(address,uint256)": {
        "notice": "Event emitted when a claim is successful"
      },
      "ClaimedOwner(address,uint256)": {
        "notice": "Event emitted when the owner claims remaining tokens"
      },
      "Redeemed(address,uint256,uint256)": {
        "notice": "Event emitted when rMetis tokens are redeemed for Metis tokens"
      },
      "RedeemedSlashed(address,uint256,uint256)": {
        "notice": "Event emitted when the owner redeems slashed tokens"
      }
    },
    "kind": "user",
    "methods": {
      "claim(uint256,bytes32[])": {
        "notice": "Claim rMetis tokens from the airdrop"
      },
      "claimOwner()": {
        "notice": "Claim the remaining rMetis tokens after the vesting period is over"
      },
      "constructor": {
        "notice": "Initialize the contract and deposit the fundsThe funds will be used to redeem rMetis tokens for Metis"
      },
      "deposit()": {
        "notice": "Desposit the funds, mint the rMetis tokens to `this`"
      },
      "emergencyRecoverToken(address,uint256)": {
        "notice": "Recovers the funds sent to the contract in case of an emergency"
      },
      "pause()": {
        "notice": "Pause the contract"
      },
      "priceRatio()": {
        "notice": "Calculate the current price ratio"
      },
      "redeem(uint256)": {
        "notice": "Redeem rMetis tokens for Metis according to the price ratio at the timeThe owner of this contract can redeem rMetis tokens for Metis always at a price ration of 1 to 1"
      },
      "redeemSlashed()": {
        "notice": "Redeem slashed Metis tokens"
      },
      "unPause()": {
        "notice": "Unpause the contract"
      }
    },
    "version": 1
  },
  "storageLayout": {
    "storage": [
      {
        "astId": 7,
        "contract": "src/VestingVault/VestingVault.sol:VestingVault",
        "label": "_owner",
        "offset": 0,
        "slot": "0",
        "type": "t_address"
      },
      {
        "astId": 231,
        "contract": "src/VestingVault/VestingVault.sol:VestingVault",
        "label": "_status",
        "offset": 0,
        "slot": "1",
        "type": "t_uint256"
      },
      {
        "astId": 130,
        "contract": "src/VestingVault/VestingVault.sol:VestingVault",
        "label": "_paused",
        "offset": 0,
        "slot": "2",
        "type": "t_bool"
      },
      {
        "astId": 2772,
        "contract": "src/VestingVault/VestingVault.sol:VestingVault",
        "label": "rMetis",
        "offset": 1,
        "slot": "2",
        "type": "t_contract(RMetis)2750"
      },
      {
        "astId": 2774,
        "contract": "src/VestingVault/VestingVault.sol:VestingVault",
        "label": "merkleRoot",
        "offset": 0,
        "slot": "3",
        "type": "t_bytes32"
      },
      {
        "astId": 2776,
        "contract": "src/VestingVault/VestingVault.sol:VestingVault",
        "label": "claimDeadline",
        "offset": 0,
        "slot": "4",
        "type": "t_uint256"
      },
      {
        "astId": 2780,
        "contract": "src/VestingVault/VestingVault.sol:VestingVault",
        "label": "claimed",
        "offset": 0,
        "slot": "5",
        "type": "t_mapping(t_address,t_bool)"
      },
      {
        "astId": 2782,
        "contract": "src/VestingVault/VestingVault.sol:VestingVault",
        "label": "startDate",
        "offset": 0,
        "slot": "6",
        "type": "t_uint256"
      },
      {
        "astId": 2784,
        "contract": "src/VestingVault/VestingVault.sol:VestingVault",
        "label": "endDate",
        "offset": 0,
        "slot": "7",
        "type": "t_uint256"
      },
      {
        "astId": 2786,
        "contract": "src/VestingVault/VestingVault.sol:VestingVault",
        "label": "minPrice",
        "offset": 0,
        "slot": "8",
        "type": "t_uint256"
      },
      {
        "astId": 2788,
        "contract": "src/VestingVault/VestingVault.sol:VestingVault",
        "label": "maxPrice",
        "offset": 0,
        "slot": "9",
        "type": "t_uint256"
      },
      {
        "astId": 2790,
        "contract": "src/VestingVault/VestingVault.sol:VestingVault",
        "label": "currentSlashed",
        "offset": 0,
        "slot": "10",
        "type": "t_uint256"
      },
      {
        "astId": 2792,
        "contract": "src/VestingVault/VestingVault.sol:VestingVault",
        "label": "totalSlashed",
        "offset": 0,
        "slot": "11",
        "type": "t_uint256"
      }
    ],
    "types": {
      "t_address": {
        "encoding": "inplace",
        "label": "address",
        "numberOfBytes": "20"
      },
      "t_bool": {
        "encoding": "inplace",
        "label": "bool",
        "numberOfBytes": "1"
      },
      "t_bytes32": {
        "encoding": "inplace",
        "label": "bytes32",
        "numberOfBytes": "32"
      },
      "t_contract(RMetis)2750": {
        "encoding": "inplace",
        "label": "contract RMetis",
        "numberOfBytes": "20"
      },
      "t_mapping(t_address,t_bool)": {
        "encoding": "mapping",
        "key": "t_address",
        "label": "mapping(address => bool)",
        "numberOfBytes": "32",
        "value": "t_bool"
      },
      "t_uint256": {
        "encoding": "inplace",
        "label": "uint256",
        "numberOfBytes": "32"
      }
    }
  }
}