{
  "address": "0x4D4F5FAf217143eC1047d944d2e4928e3dCCC9FB",
  "abi": [
    {
      "inputs": [
        {
          "internalType": "bytes32",
          "name": "_merkleRoot",
          "type": "bytes32"
        },
        {
          "internalType": "uint256",
          "name": "_claimDeadline",
          "type": "uint256"
        },
        {
          "internalType": "uint256",
          "name": "_startDate",
          "type": "uint256"
        },
        {
          "internalType": "uint256",
          "name": "_endDate",
          "type": "uint256"
        },
        {
          "internalType": "uint256",
          "name": "_minPrice",
          "type": "uint256"
        },
        {
          "internalType": "uint256",
          "name": "_maxPrice",
          "type": "uint256"
        }
      ],
      "stateMutability": "nonpayable",
      "type": "constructor"
    },
    {
      "anonymous": false,
      "inputs": [
        {
          "indexed": true,
          "internalType": "address",
          "name": "account",
          "type": "address"
        },
        {
          "indexed": false,
          "internalType": "uint256",
          "name": "amount",
          "type": "uint256"
        }
      ],
      "name": "Claimed",
      "type": "event"
    },
    {
      "anonymous": false,
      "inputs": [
        {
          "indexed": true,
          "internalType": "address",
          "name": "account",
          "type": "address"
        },
        {
          "indexed": false,
          "internalType": "uint256",
          "name": "amount",
          "type": "uint256"
        }
      ],
      "name": "ClaimedOwner",
      "type": "event"
    },
    {
      "anonymous": false,
      "inputs": [
        {
          "indexed": true,
          "internalType": "address",
          "name": "previousOwner",
          "type": "address"
        },
        {
          "indexed": true,
          "internalType": "address",
          "name": "newOwner",
          "type": "address"
        }
      ],
      "name": "OwnershipTransferStarted",
      "type": "event"
    },
    {
      "anonymous": false,
      "inputs": [
        {
          "indexed": true,
          "internalType": "address",
          "name": "previousOwner",
          "type": "address"
        },
        {
          "indexed": true,
          "internalType": "address",
          "name": "newOwner",
          "type": "address"
        }
      ],
      "name": "OwnershipTransferred",
      "type": "event"
    },
    {
      "anonymous": false,
      "inputs": [
        {
          "indexed": false,
          "internalType": "address",
          "name": "account",
          "type": "address"
        }
      ],
      "name": "Paused",
      "type": "event"
    },
    {
      "anonymous": false,
      "inputs": [
        {
          "indexed": true,
          "internalType": "address",
          "name": "account",
          "type": "address"
        },
        {
          "indexed": false,
          "internalType": "uint256",
          "name": "rMetisAmount",
          "type": "uint256"
        },
        {
          "indexed": false,
          "internalType": "uint256",
          "name": "ratio",
          "type": "uint256"
        }
      ],
      "name": "Redeemed",
      "type": "event"
    },
    {
      "anonymous": false,
      "inputs": [
        {
          "indexed": true,
          "internalType": "address",
          "name": "account",
          "type": "address"
        },
        {
          "indexed": false,
          "internalType": "uint256",
          "name": "amount",
          "type": "uint256"
        },
        {
          "indexed": false,
          "internalType": "uint256",
          "name": "totalSlashed",
          "type": "uint256"
        }
      ],
      "name": "RedeemedSlashed",
      "type": "event"
    },
    {
      "anonymous": false,
      "inputs": [
        {
          "indexed": false,
          "internalType": "address",
          "name": "account",
          "type": "address"
        }
      ],
      "name": "Unpaused",
      "type": "event"
    },
    {
      "inputs": [],
      "name": "DAY_SECONDS",
      "outputs": [
        {
          "internalType": "uint256",
          "name": "",
          "type": "uint256"
        }
      ],
      "stateMutability": "view",
      "type": "function"
    },
    {
      "inputs": [],
      "name": "PRICE_PRECISION",
      "outputs": [
        {
          "internalType": "uint256",
          "name": "",
          "type": "uint256"
        }
      ],
      "stateMutability": "view",
      "type": "function"
    },
    {
      "inputs": [],
      "name": "acceptOwnership",
      "outputs": [],
      "stateMutability": "nonpayable",
      "type": "function"
    },
    {
      "inputs": [
        {
          "internalType": "uint256",
          "name": "amount",
          "type": "uint256"
        },
        {
          "internalType": "bytes32[]",
          "name": "merkleProof",
          "type": "bytes32[]"
        }
      ],
      "name": "claim",
      "outputs": [],
      "stateMutability": "nonpayable",
      "type": "function"
    },
    {
      "inputs": [],
      "name": "claimDeadline",
      "outputs": [
        {
          "internalType": "uint256",
          "name": "",
          "type": "uint256"
        }
      ],
      "stateMutability": "view",
      "type": "function"
    },
    {
      "inputs": [],
      "name": "claimOwner",
      "outputs": [],
      "stateMutability": "nonpayable",
      "type": "function"
    },
    {
      "inputs": [
        {
          "internalType": "address",
          "name": "",
          "type": "address"
        }
      ],
      "name": "claimed",
      "outputs": [
        {
          "internalType": "bool",
          "name": "",
          "type": "bool"
        }
      ],
      "stateMutability": "view",
      "type": "function"
    },
    {
      "inputs": [],
      "name": "currentSlashed",
      "outputs": [
        {
          "internalType": "uint256",
          "name": "",
          "type": "uint256"
        }
      ],
      "stateMutability": "view",
      "type": "function"
    },
    {
      "inputs": [],
      "name": "deposit",
      "outputs": [],
      "stateMutability": "payable",
      "type": "function"
    },
    {
      "inputs": [
        {
          "internalType": "address",
          "name": "_token",
          "type": "address"
        },
        {
          "internalType": "uint256",
          "name": "_amount",
          "type": "uint256"
        }
      ],
      "name": "emergencyRecoverToken",
      "outputs": [],
      "stateMutability": "nonpayable",
      "type": "function"
    },
    {
      "inputs": [],
      "name": "endDate",
      "outputs": [
        {
          "internalType": "uint256",
          "name": "",
          "type": "uint256"
        }
      ],
      "stateMutability": "view",
      "type": "function"
    },
    {
      "inputs": [],
      "name": "maxPrice",
      "outputs": [
        {
          "internalType": "uint256",
          "name": "",
          "type": "uint256"
        }
      ],
      "stateMutability": "view",
      "type": "function"
    },
    {
      "inputs": [],
      "name": "merkleRoot",
      "outputs": [
        {
          "internalType": "bytes32",
          "name": "",
          "type": "bytes32"
        }
      ],
      "stateMutability": "view",
      "type": "function"
    },
    {
      "inputs": [],
      "name": "minPrice",
      "outputs": [
        {
          "internalType": "uint256",
          "name": "",
          "type": "uint256"
        }
      ],
      "stateMutability": "view",
      "type": "function"
    },
    {
      "inputs": [],
      "name": "owner",
      "outputs": [
        {
          "internalType": "address",
          "name": "",
          "type": "address"
        }
      ],
      "stateMutability": "view",
      "type": "function"
    },
    {
      "inputs": [],
      "name": "pause",
      "outputs": [],
      "stateMutability": "nonpayable",
      "type": "function"
    },
    {
      "inputs": [],
      "name": "paused",
      "outputs": [
        {
          "internalType": "bool",
          "name": "",
          "type": "bool"
        }
      ],
      "stateMutability": "view",
      "type": "function"
    },
    {
      "inputs": [],
      "name": "pendingOwner",
      "outputs": [
        {
          "internalType": "address",
          "name": "",
          "type": "address"
        }
      ],
      "stateMutability": "view",
      "type": "function"
    },
    {
      "inputs": [],
      "name": "priceRatio",
      "outputs": [
        {
          "internalType": "uint256",
          "name": "",
          "type": "uint256"
        }
      ],
      "stateMutability": "view",
      "type": "function"
    },
    {
      "inputs": [],
      "name": "rMetis",
      "outputs": [
        {
          "internalType": "contract RMetis",
          "name": "",
          "type": "address"
        }
      ],
      "stateMutability": "view",
      "type": "function"
    },
    {
      "inputs": [
        {
          "internalType": "uint256",
          "name": "amount",
          "type": "uint256"
        }
      ],
      "name": "redeem",
      "outputs": [],
      "stateMutability": "nonpayable",
      "type": "function"
    },
    {
      "inputs": [],
      "name": "redeemSlashed",
      "outputs": [],
      "stateMutability": "nonpayable",
      "type": "function"
    },
    {
      "inputs": [],
      "name": "renounceOwnership",
      "outputs": [],
      "stateMutability": "nonpayable",
      "type": "function"
    },
    {
      "inputs": [],
      "name": "startDate",
      "outputs": [
        {
          "internalType": "uint256",
          "name": "",
          "type": "uint256"
        }
      ],
      "stateMutability": "view",
      "type": "function"
    },
    {
      "inputs": [],
      "name": "totalSlashed",
      "outputs": [
        {
          "internalType": "uint256",
          "name": "",
          "type": "uint256"
        }
      ],
      "stateMutability": "view",
      "type": "function"
    },
    {
      "inputs": [
        {
          "internalType": "address",
          "name": "newOwner",
          "type": "address"
        }
      ],
      "name": "transferOwnership",
      "outputs": [],
      "stateMutability": "nonpayable",
      "type": "function"
    },
    {
      "inputs": [],
      "name": "unPause",
      "outputs": [],
      "stateMutability": "nonpayable",
      "type": "function"
    }
  ],
  "transactionHash": "0xe8ab848ce4f9b6ffac2cc3d39996e123050adf931684f069f7062f3624d7cec0",
  "args": [
    "0x6c08dfc6d2bd84ef86edd81de11989b6a47f10a318ff345c89d4f45b805f99cb",
    "1728997200",
    "1694782800",
    "1726405200",
    "5000",
    "10000"
  ],
  "numDeployments": 1,
  "solcInputHash": "4fce46921b1be2bc1a7b4d532be7e7ff",
  "bytecode": "0x6101406040523480156200001257600080fd5b5060405162002c5f38038062002c5f833981016040819052620000359162000284565b6200004033620001fc565b60016002556003805460ff191690556040516200005d9062000276565b604051809103906000f0801580156200007a573d6000803e3d6000fd5b50600380546001600160a01b039290921661010002610100600160a81b0319909216919091179055608086905260a0859052428511620001115760405162461bcd60e51b815260206004820152602760248201527f56657374696e675661756c743a20496e76616c69642061697264726f702064756044820152663930ba34b7b71760c91b60648201526084015b60405180910390fd5b828410620001705760405162461bcd60e51b815260206004820152602560248201527f56657374696e675661756c743a20496e76616c69642076657374696e672070656044820152643934b7b21760d91b606482015260840162000108565b60c084905260e08390528082118015906200018d57506127108111155b620001e65760405162461bcd60e51b815260206004820152602260248201527f56657374696e675661756c743a20496e76616c69642070726963652072616e67604482015261329760f11b606482015260840162000108565b610100919091526101205250620002cf92505050565b600180546001600160a01b0319169055620002238162000226602090811b6200114f17901c565b50565b600080546001600160a01b038381166001600160a01b0319831681178455604051919092169283917f8be0079c531659141344cd1fd0a4f28419497f9722a3daafe3b4186f6b6457e09190a35050565b6110808062001bdf83390190565b60008060008060008060c087890312156200029e57600080fd5b865195506020870151945060408701519350606087015192506080870151915060a087015190509295509295509295565b60805160a05160c05160e051610100516101205161186c62000373600039600081816104b401528181610613015261067c0152600081816104e8015281816105f2015261065601526000818161040a01526105c50152600081816101eb0152818161054301528181610576015281816105a40152610e420152600081816102b20152818161071b01526109c101526000818161025c01526107e8015261186c6000f3fe6080604052600436106101ac5760003560e01c80638da5cb5b116100ec578063d0e30db01161008a578063e38d6b5c11610064578063e38d6b5c146104a2578063e45be8eb146104d6578063f2fde38b1461050a578063f7b188a51461052a57600080fd5b8063d0e30db01461045c578063db006a7514610464578063e30c39781461048457600080fd5b8063a201bbdd116100c6578063a201bbdd146103cd578063b944e4d9146103e3578063c24a0f8b146103f8578063c884ef831461042c57600080fd5b80638da5cb5b1461038357806395082d25146103a15780639e137b4e146103b757600080fd5b80633bd1adec11610159578063715018a611610133578063715018a614610324578063790201941461033957806379ba5097146103595780638456cb591461036e57600080fd5b80633bd1adec146102d457806358e6d53c146102e95780635c975abb1461030057600080fd5b80632eb4a7ab1161018a5780632eb4a7ab1461024a5780632f52ebb71461027e5780633ba86c44146102a057600080fd5b80630aa2f420146101b15780630b97bc86146101d95780632460eba21461020d575b600080fd5b3480156101bd57600080fd5b506101c661053f565b6040519081526020015b60405180910390f35b3480156101e557600080fd5b506101c67f000000000000000000000000000000000000000000000000000000000000000081565b34801561021957600080fd5b506003546102329061010090046001600160a01b031681565b6040516001600160a01b0390911681526020016101d0565b34801561025657600080fd5b506101c67f000000000000000000000000000000000000000000000000000000000000000081565b34801561028a57600080fd5b5061029e610299366004611638565b6106a8565b005b3480156102ac57600080fd5b506101c67f000000000000000000000000000000000000000000000000000000000000000081565b3480156102e057600080fd5b5061029e6109b7565b3480156102f557600080fd5b506101c66201518081565b34801561030c57600080fd5b5060035460ff165b60405190151581526020016101d0565b34801561033057600080fd5b5061029e610b94565b34801561034557600080fd5b5061029e6103543660046116d3565b610ba8565b34801561036557600080fd5b5061029e610c26565b34801561037a57600080fd5b5061029e610cb4565b34801561038f57600080fd5b506000546001600160a01b0316610232565b3480156103ad57600080fd5b506101c661271081565b3480156103c357600080fd5b506101c660055481565b3480156103d957600080fd5b506101c660065481565b3480156103ef57600080fd5b5061029e610cc4565b34801561040457600080fd5b506101c67f000000000000000000000000000000000000000000000000000000000000000081565b34801561043857600080fd5b506103146104473660046116fd565b60046020526000908152604090205460ff1681565b61029e610d5c565b34801561047057600080fd5b5061029e61047f366004611718565b610e30565b34801561049057600080fd5b506001546001600160a01b0316610232565b3480156104ae57600080fd5b506101c67f000000000000000000000000000000000000000000000000000000000000000081565b3480156104e257600080fd5b506101c67f000000000000000000000000000000000000000000000000000000000000000081565b34801561051657600080fd5b5061029e6105253660046116fd565b6110c1565b34801561053657600080fd5b5061029e61113f565b60007f000000000000000000000000000000000000000000000000000000000000000042101561056f5750600090565b600061059b7f000000000000000000000000000000000000000000000000000000000000000042611747565b905060006105e97f00000000000000000000000000000000000000000000000000000000000000007f0000000000000000000000000000000000000000000000000000000000000000611747565b905060006106377f00000000000000000000000000000000000000000000000000000000000000007f0000000000000000000000000000000000000000000000000000000000000000611747565b90506106a06106508361064a84876111ac565b906111c1565b61067a907f000000000000000000000000000000000000000000000000000000000000000061175a565b7f00000000000000000000000000000000000000000000000000000000000000006111cd565b935050505090565b6106b06111e3565b60408051336020820152908101849052600090606001604080517fffffffffffffffffffffffffffffffffffffffffffffffffffffffffffffffe0818403018152828252805160209182012090830152016040516020818303038152906040528051906020012090507f000000000000000000000000000000000000000000000000000000000000000042106107b35760405162461bcd60e51b815260206004820152602860248201527f56657374696e675661756c743a20436c61696d20646561646c696e652068617360448201527f207061737365642e00000000000000000000000000000000000000000000000060648201526084015b60405180910390fd5b6108138383808060200260200160405190810160405280939291908181526020018383602002808284376000920191909152507f000000000000000000000000000000000000000000000000000000000000000092508591506112369050565b61085f5760405162461bcd60e51b815260206004820152601c60248201527f56657374696e675661756c743a20496e76616c69642070726f6f662e0000000060448201526064016107aa565b3360009081526004602052604090205460ff16156108e55760405162461bcd60e51b815260206004820152602360248201527f56657374696e675661756c743a2044726f7020616c726561647920636c61696d60448201527f65642e000000000000000000000000000000000000000000000000000000000060648201526084016107aa565b33600081815260046020819052604091829020805460ff19166001179055600354915163a9059cbb60e01b8152908101929092526024820186905261010090046001600160a01b03169063a9059cbb906044016020604051808303816000875af1158015610957573d6000803e3d6000fd5b505050506040513d601f19601f8201168201806040525081019061097b919061176d565b5060405184815233907fd8138f8a3f377c5259ca548e70e4c2de94f129f5a11036a15b69513cba2b426a9060200160405180910390a250505050565b6109bf61124c565b7f0000000000000000000000000000000000000000000000000000000000000000421015610a555760405162461bcd60e51b815260206004820152602c60248201527f56657374696e675661756c743a20436c61696d20646561646c696e652068617360448201527f206e6f74207061737365642e000000000000000000000000000000000000000060648201526084016107aa565b6003546040517f70a0823100000000000000000000000000000000000000000000000000000000815230600482015260009161010090046001600160a01b0316906370a0823190602401602060405180830381865afa158015610abc573d6000803e3d6000fd5b505050506040513d601f19601f82011682018060405250810190610ae09190611796565b60035460405163a9059cbb60e01b81523360048201526024810183905291925061010090046001600160a01b03169063a9059cbb906044016020604051808303816000875af1158015610b37573d6000803e3d6000fd5b505050506040513d601f19601f82011682018060405250810190610b5b919061176d565b5060405181815233907f6123a94b22513170bcdc47366f3a1f7a927377a272462e97605d34c7e2e2d2c59060200160405180910390a250565b610b9c61124c565b610ba660006112a6565b565b610bb061124c565b60405163a9059cbb60e01b8152336004820152602481018290526001600160a01b0383169063a9059cbb906044016020604051808303816000875af1158015610bfd573d6000803e3d6000fd5b505050506040513d601f19601f82011682018060405250810190610c21919061176d565b505050565b60015433906001600160a01b03168114610ca85760405162461bcd60e51b815260206004820152602960248201527f4f776e61626c6532537465703a2063616c6c6572206973206e6f74207468652060448201527f6e6577206f776e6572000000000000000000000000000000000000000000000060648201526084016107aa565b610cb1816112a6565b50565b610cbc61124c565b610ba66112cc565b610ccc61124c565b610cd4611326565b600580546000918290556040519091339183156108fc0291849190818181858888f19350505050158015610d0c573d6000803e3d6000fd5b5060065460405133917fc66b86fb07910bdaeb76c786f74d8630b273dd2140b9f2ab160e9380d83dacff91610d4991858252602082015260400190565b60405180910390a250610ba66001600255565b610d6461124c565b60003411610db45760405162461bcd60e51b815260206004820152601a60248201527f4465706f7369742073686f756c64206265206e6f6e2d7a65726f00000000000060448201526064016107aa565b6003546040517fa0712d680000000000000000000000000000000000000000000000000000000081523460048201526101009091046001600160a01b03169063a0712d6890602401600060405180830381600087803b158015610e1657600080fd5b505af1158015610e2a573d6000803e3d6000fd5b50505050565b610e38611326565b610e406111e3565b7f0000000000000000000000000000000000000000000000000000000000000000421015610ed65760405162461bcd60e51b815260206004820152602d60248201527f56657374696e675661756c743a2056657374696e6720706572696f642068617360448201527f206e6f7420737461727465642e0000000000000000000000000000000000000060648201526084016107aa565b60008111610f4c5760405162461bcd60e51b815260206004820152602c60248201527f56657374696e675661756c743a20416d6f756e74206d7573742062652067726560448201527f61746572207468616e20302e000000000000000000000000000000000000000060648201526084016107aa565b6003546040517f70a08231000000000000000000000000000000000000000000000000000000008152336004820152829161010090046001600160a01b0316906370a0823190602401602060405180830381865afa158015610fb2573d6000803e3d6000fd5b505050506040513d601f19601f82011682018060405250810190610fd69190611796565b101561104a5760405162461bcd60e51b815260206004820152602a60248201527f56657374696e675661756c743a20496e73756666696369656e7420724d65746960448201527f732062616c616e63652e0000000000000000000000000000000000000000000060648201526084016107aa565b600080546001600160a01b0316331461106a5761106561053f565b61106e565b6127105b905061107b33838361137d565b604080518381526020810183905233917ff3a670cd3af7d64b488926880889d08a8585a138ff455227af6737339a1ec262910160405180910390a250610cb16001600255565b6110c961124c565b600180546001600160a01b03831673ffffffffffffffffffffffffffffffffffffffff1990911681179091556111076000546001600160a01b031690565b6001600160a01b03167f38d16b8cac22d99fc7c124b9cd0de2d3fa1faef420bfe791d8c362d765e2270060405160405180910390a350565b61114761124c565b610ba6611519565b600080546001600160a01b0383811673ffffffffffffffffffffffffffffffffffffffff19831681178455604051919092169283917f8be0079c531659141344cd1fd0a4f28419497f9722a3daafe3b4186f6b6457e09190a35050565b60006111b882846117af565b90505b92915050565b60006111b882846117c6565b60008183106111dc57816111b8565b5090919050565b60035460ff1615610ba65760405162461bcd60e51b815260206004820152601060248201527f5061757361626c653a207061757365640000000000000000000000000000000060448201526064016107aa565b6000826112438584611552565b14949350505050565b6000546001600160a01b03163314610ba65760405162461bcd60e51b815260206004820181905260248201527f4f776e61626c653a2063616c6c6572206973206e6f7420746865206f776e657260448201526064016107aa565b6001805473ffffffffffffffffffffffffffffffffffffffff19169055610cb18161114f565b6112d46111e3565b6003805460ff191660011790557f62e78cea01bee320cd4e420270b5ea74000d11b0c9f74754ebdbfc544b05a2586113093390565b6040516001600160a01b03909116815260200160405180910390a1565b60028054036113775760405162461bcd60e51b815260206004820152601f60248201527f5265656e7472616e637947756172643a207265656e7472616e742063616c6c0060448201526064016107aa565b60028055565b600061138f61271061064a85856111ac565b6003546040517f23b872dd0000000000000000000000000000000000000000000000000000000081526001600160a01b03878116600483015230602483015260448201879052929350610100909104909116906323b872dd906064016020604051808303816000875af115801561140a573d6000803e3d6000fd5b505050506040513d601f19601f8201168201806040525081019061142e919061176d565b506003546040517f42966c68000000000000000000000000000000000000000000000000000000008152600481018590526101009091046001600160a01b0316906342966c6890602401600060405180830381600087803b15801561149257600080fd5b505af11580156114a6573d6000803e3d6000fd5b50506040516001600160a01b038716925083156108fc02915083906000818181858888f193505050501580156114e0573d6000803e3d6000fd5b506114f76114ee848361159f565b600554906115ab565b600555611510611507848361159f565b600654906115ab565b60065550505050565b6115216115b7565b6003805460ff191690557f5db9ee0a495bf2e6ff9c91a7834c1ba4fdd244a5e8aa4e537bd38aeae4b073aa33611309565b600081815b84518110156115975761158382868381518110611576576115766117e8565b6020026020010151611609565b91508061158f816117fe565b915050611557565b509392505050565b60006111b88284611747565b60006111b8828461175a565b60035460ff16610ba65760405162461bcd60e51b815260206004820152601460248201527f5061757361626c653a206e6f742070617573656400000000000000000000000060448201526064016107aa565b60008183106116255760008281526020849052604090206111b8565b60008381526020839052604090206111b8565b60008060006040848603121561164d57600080fd5b83359250602084013567ffffffffffffffff8082111561166c57600080fd5b818601915086601f83011261168057600080fd5b81358181111561168f57600080fd5b8760208260051b85010111156116a457600080fd5b6020830194508093505050509250925092565b80356001600160a01b03811681146116ce57600080fd5b919050565b600080604083850312156116e657600080fd5b6116ef836116b7565b946020939093013593505050565b60006020828403121561170f57600080fd5b6111b8826116b7565b60006020828403121561172a57600080fd5b5035919050565b634e487b7160e01b600052601160045260246000fd5b818103818111156111bb576111bb611731565b808201808211156111bb576111bb611731565b60006020828403121561177f57600080fd5b8151801515811461178f57600080fd5b9392505050565b6000602082840312156117a857600080fd5b5051919050565b80820281158282048414176111bb576111bb611731565b6000826117e357634e487b7160e01b600052601260045260246000fd5b500490565b634e487b7160e01b600052603260045260246000fd5b60007fffffffffffffffffffffffffffffffffffffffffffffffffffffffffffffffff820361182f5761182f611731565b506001019056fea2646970667358221220e04fa0065be0644633e827366fc91789ddd71ab38cf3639de530b4ca5fa50c7964736f6c6343000811003360806040523480156200001157600080fd5b506040518060400160405280600d81526020016c2932a6b2ba34b9902a37b5b2b760991b81525060405180604001604052806006815260200165724d6574697360d01b815250816003908162000068919062000195565b50600462000077828262000195565b505050620000946200008e6200009a60201b60201c565b6200009e565b62000261565b3390565b600580546001600160a01b038381166001600160a01b0319831681179093556040519116919082907f8be0079c531659141344cd1fd0a4f28419497f9722a3daafe3b4186f6b6457e090600090a35050565b634e487b7160e01b600052604160045260246000fd5b600181811c908216806200011b57607f821691505b6020821081036200013c57634e487b7160e01b600052602260045260246000fd5b50919050565b601f8211156200019057600081815260208120601f850160051c810160208610156200016b5750805b601f850160051c820191505b818110156200018c5782815560010162000177565b5050505b505050565b81516001600160401b03811115620001b157620001b1620000f0565b620001c981620001c2845462000106565b8462000142565b602080601f831160018114620002015760008415620001e85750858301515b600019600386901b1c1916600185901b1785556200018c565b600085815260208120601f198616915b82811015620002325788860151825594840194600190910190840162000211565b5085821015620002515787850151600019600388901b60f8161c191681555b5050505050600190811b01905550565b610e0f80620002716000396000f3fe608060405234801561001057600080fd5b50600436106101005760003560e01c8063715018a611610097578063a457c2d711610066578063a457c2d714610209578063a9059cbb1461021c578063dd62ed3e1461022f578063f2fde38b1461026857600080fd5b8063715018a6146101cb5780638da5cb5b146101d357806395d89b41146101ee578063a0712d68146101f657600080fd5b8063313ce567116100d3578063313ce5671461016b578063395093511461017a57806342966c681461018d57806370a08231146101a257600080fd5b806306fdde0314610105578063095ea7b31461012357806318160ddd1461014657806323b872dd14610158575b600080fd5b61010d61027b565b60405161011a9190610bf0565b60405180910390f35b610136610131366004610c78565b61030d565b604051901515815260200161011a565b6002545b60405190815260200161011a565b610136610166366004610ca2565b610327565b6040516012815260200161011a565b610136610188366004610c78565b61034b565b6101a061019b366004610cde565b61038a565b005b61014a6101b0366004610cf7565b6001600160a01b031660009081526020819052604090205490565b6101a0610397565b6005546040516001600160a01b03909116815260200161011a565b61010d6103ab565b6101a0610204366004610cde565b6103ba565b610136610217366004610c78565b6103cc565b61013661022a366004610c78565b61047b565b61014a61023d366004610d19565b6001600160a01b03918216600090815260016020908152604080832093909416825291909152205490565b6101a0610276366004610cf7565b610489565b60606003805461028a90610d4c565b80601f01602080910402602001604051908101604052809291908181526020018280546102b690610d4c565b80156103035780601f106102d857610100808354040283529160200191610303565b820191906000526020600020905b8154815290600101906020018083116102e657829003601f168201915b5050505050905090565b60003361031b818585610516565b60019150505b92915050565b60003361033585828561066f565b61034085858561071f565b506001949350505050565b3360008181526001602090815260408083206001600160a01b038716845290915281205490919061031b9082908690610385908790610d9f565b610516565b610394338261090c565b50565b61039f610a6d565b6103a96000610ac7565b565b60606004805461028a90610d4c565b6103c2610a6d565b6103943382610b31565b3360008181526001602090815260408083206001600160a01b03871684529091528120549091908381101561046e5760405162461bcd60e51b815260206004820152602560248201527f45524332303a2064656372656173656420616c6c6f77616e63652062656c6f7760448201527f207a65726f00000000000000000000000000000000000000000000000000000060648201526084015b60405180910390fd5b6103408286868403610516565b60003361031b81858561071f565b610491610a6d565b6001600160a01b03811661050d5760405162461bcd60e51b815260206004820152602660248201527f4f776e61626c653a206e6577206f776e657220697320746865207a65726f206160448201527f64647265737300000000000000000000000000000000000000000000000000006064820152608401610465565b61039481610ac7565b6001600160a01b0383166105915760405162461bcd60e51b8152602060048201526024808201527f45524332303a20617070726f76652066726f6d20746865207a65726f2061646460448201527f72657373000000000000000000000000000000000000000000000000000000006064820152608401610465565b6001600160a01b03821661060d5760405162461bcd60e51b815260206004820152602260248201527f45524332303a20617070726f766520746f20746865207a65726f20616464726560448201527f73730000000000000000000000000000000000000000000000000000000000006064820152608401610465565b6001600160a01b0383811660008181526001602090815260408083209487168084529482529182902085905590518481527f8c5be1e5ebec7d5bd14f71427d1e84f3dd0314c0f7b2291e5b200ac8c7c3b92591015b60405180910390a3505050565b6001600160a01b038381166000908152600160209081526040808320938616835292905220547fffffffffffffffffffffffffffffffffffffffffffffffffffffffffffffffff8114610719578181101561070c5760405162461bcd60e51b815260206004820152601d60248201527f45524332303a20696e73756666696369656e7420616c6c6f77616e63650000006044820152606401610465565b6107198484848403610516565b50505050565b6001600160a01b03831661079b5760405162461bcd60e51b815260206004820152602560248201527f45524332303a207472616e736665722066726f6d20746865207a65726f20616460448201527f64726573730000000000000000000000000000000000000000000000000000006064820152608401610465565b6001600160a01b0382166108175760405162461bcd60e51b815260206004820152602360248201527f45524332303a207472616e7366657220746f20746865207a65726f206164647260448201527f65737300000000000000000000000000000000000000000000000000000000006064820152608401610465565b6001600160a01b038316600090815260208190526040902054818110156108a65760405162461bcd60e51b815260206004820152602660248201527f45524332303a207472616e7366657220616d6f756e742065786365656473206260448201527f616c616e636500000000000000000000000000000000000000000000000000006064820152608401610465565b6001600160a01b03848116600081815260208181526040808320878703905593871680835291849020805487019055925185815290927fddf252ad1be2c89b69c2b068fc378daa952ba7f163c4a11628f55a4df523b3ef910160405180910390a3610719565b6001600160a01b0382166109885760405162461bcd60e51b815260206004820152602160248201527f45524332303a206275726e2066726f6d20746865207a65726f2061646472657360448201527f73000000000000000000000000000000000000000000000000000000000000006064820152608401610465565b6001600160a01b03821660009081526020819052604090205481811015610a175760405162461bcd60e51b815260206004820152602260248201527f45524332303a206275726e20616d6f756e7420657863656564732062616c616e60448201527f63650000000000000000000000000000000000000000000000000000000000006064820152608401610465565b6001600160a01b0383166000818152602081815260408083208686039055600280548790039055518581529192917fddf252ad1be2c89b69c2b068fc378daa952ba7f163c4a11628f55a4df523b3ef9101610662565b6005546001600160a01b031633146103a95760405162461bcd60e51b815260206004820181905260248201527f4f776e61626c653a2063616c6c6572206973206e6f7420746865206f776e65726044820152606401610465565b600580546001600160a01b038381167fffffffffffffffffffffffff0000000000000000000000000000000000000000831681179093556040519116919082907f8be0079c531659141344cd1fd0a4f28419497f9722a3daafe3b4186f6b6457e090600090a35050565b6001600160a01b038216610b875760405162461bcd60e51b815260206004820152601f60248201527f45524332303a206d696e7420746f20746865207a65726f2061646472657373006044820152606401610465565b8060026000828254610b999190610d9f565b90915550506001600160a01b038216600081815260208181526040808320805486019055518481527fddf252ad1be2c89b69c2b068fc378daa952ba7f163c4a11628f55a4df523b3ef910160405180910390a35050565b600060208083528351808285015260005b81811015610c1d57858101830151858201604001528201610c01565b5060006040828601015260407fffffffffffffffffffffffffffffffffffffffffffffffffffffffffffffffe0601f8301168501019250505092915050565b80356001600160a01b0381168114610c7357600080fd5b919050565b60008060408385031215610c8b57600080fd5b610c9483610c5c565b946020939093013593505050565b600080600060608486031215610cb757600080fd5b610cc084610c5c565b9250610cce60208501610c5c565b9150604084013590509250925092565b600060208284031215610cf057600080fd5b5035919050565b600060208284031215610d0957600080fd5b610d1282610c5c565b9392505050565b60008060408385031215610d2c57600080fd5b610d3583610c5c565b9150610d4360208401610c5c565b90509250929050565b600181811c90821680610d6057607f821691505b602082108103610d99577f4e487b7100000000000000000000000000000000000000000000000000000000600052602260045260246000fd5b50919050565b80820180821115610321577f4e487b7100000000000000000000000000000000000000000000000000000000600052601160045260246000fdfea2646970667358221220a4313fad68ac5e675eaf1e376e36a9657a19b70d254176f797b95c900cfa1c5664736f6c63430008110033",
  "devdoc": {
    "author": "Rami Husami (gh: @t0mcr8se)",
    "details": "A contract for managing the vesting of RMetis tokens, including claim and redeem functionalities.",
    "kind": "dev",
    "methods": {
      "acceptOwnership()": {
        "details": "The new owner accepts the ownership transfer."
      },
      "claim(uint256,bytes32[])": {
        "params": {
          "amount": "Amount of rMetis tokens to claim",
          "merkleProof": "Merkle proof of the address"
        }
      },
      "claimOwner()": {
        "details": "This function can be only called by the owner after the claiming period is over to recover the unclaimable rMetis tokens"
      },
      "constructor": {
        "details": "The msg.value should exactly match the sum in the merkle tree",
        "params": {
          "_claimDeadline": "Deadline for claiming rMetis airdrop",
          "_endDate": "End date of the vesting period",
          "_maxPrice": "Value of 1 RMetis in Metis at or after the end of the vesting period * PRICE_PRECISION",
          "_merkleRoot": "Merkle root of the merkle tree for the airdrop",
          "_minPrice": "Value of 1 RMetis in Metis at the start of the vesting period * PRICE_PRECISION",
          "_startDate": "Start date of the vesting period"
        }
      },
      "deposit()": {
        "details": "The msg.value should exactly match the sum in the merkle tree"
      },
      "emergencyRecoverToken(address,uint256)": {
        "details": "This function can be only called by the owner"
      },
      "owner()": {
        "details": "Returns the address of the current owner."
      },
      "pause()": {
        "details": "This function can be only called by the owner"
      },
      "paused()": {
        "details": "Returns true if the contract is paused, and false otherwise."
      },
      "pendingOwner()": {
        "details": "Returns the address of the pending owner."
      },
      "priceRatio()": {
        "returns": {
          "_0": "Current price ratio"
        }
      },
      "redeem(uint256)": {
        "params": {
          "amount": "Amount of rMetis tokens to redeem"
        }
      },
      "redeemSlashed()": {
        "details": "This function can be only called by the owner to recover the slashed Metis tokens"
      },
      "renounceOwnership()": {
        "details": "Leaves the contract without owner. It will not be possible to call `onlyOwner` functions. Can only be called by the current owner. NOTE: Renouncing ownership will leave the contract without an owner, thereby disabling any functionality that is only available to the owner."
      },
      "transferOwnership(address)": {
        "details": "Starts the ownership transfer of the contract to a new account. Replaces the pending transfer if there is one. Can only be called by the current owner."
      },
      "unPause()": {
        "details": "This function can be only called by the owner"
      }
    },
    "title": "VestingVault",
    "version": 1
  },
  "userdoc": {
    "events": {
      "Claimed(address,uint256)": {
        "notice": "Event emitted when a claim is successful"
      },
      "ClaimedOwner(address,uint256)": {
        "notice": "Event emitted when the owner claims remaining tokens"
      },
      "Redeemed(address,uint256,uint256)": {
        "notice": "Event emitted when rMetis tokens are redeemed for Metis tokens"
      },
      "RedeemedSlashed(address,uint256,uint256)": {
        "notice": "Event emitted when the owner redeems slashed tokens"
      }
    },
    "kind": "user",
    "methods": {
      "claim(uint256,bytes32[])": {
        "notice": "Claim rMetis tokens from the airdrop"
      },
      "claimOwner()": {
        "notice": "Claim the remaining rMetis tokens after the vesting period is over"
      },
      "constructor": {
        "notice": "Initialize the contract and deposit the fundsThe funds will be used to redeem rMetis tokens for Metis"
      },
      "deposit()": {
        "notice": "Desposit the funds, mint the rMetis tokens to `this`"
      },
      "emergencyRecoverToken(address,uint256)": {
        "notice": "Recovers the funds sent to the contract in case of an emergency"
      },
      "pause()": {
        "notice": "Pause the contract"
      },
      "priceRatio()": {
        "notice": "Calculate the current price ratio"
      },
      "redeem(uint256)": {
        "notice": "Redeem rMetis tokens for Metis according to the price ratio at the timeThe owner of this contract can redeem rMetis tokens for Metis always at a price ration of 1 to 1"
      },
      "redeemSlashed()": {
        "notice": "Redeem slashed Metis tokens"
      },
      "unPause()": {
        "notice": "Unpause the contract"
      }
    },
    "version": 1
  },
  "storageLayout": {
    "storage": [
      {
        "astId": 7,
        "contract": "src/VestingVault/VestingVault.sol:VestingVault",
        "label": "_owner",
        "offset": 0,
        "slot": "0",
        "type": "t_address"
      },
      {
        "astId": 120,
        "contract": "src/VestingVault/VestingVault.sol:VestingVault",
        "label": "_pendingOwner",
        "offset": 0,
        "slot": "1",
        "type": "t_address"
      },
      {
        "astId": 314,
        "contract": "src/VestingVault/VestingVault.sol:VestingVault",
        "label": "_status",
        "offset": 0,
        "slot": "2",
        "type": "t_uint256"
      },
      {
        "astId": 213,
        "contract": "src/VestingVault/VestingVault.sol:VestingVault",
        "label": "_paused",
        "offset": 0,
        "slot": "3",
        "type": "t_bool"
      },
      {
        "astId": 2855,
        "contract": "src/VestingVault/VestingVault.sol:VestingVault",
        "label": "rMetis",
        "offset": 1,
        "slot": "3",
        "type": "t_contract(RMetis)2833"
      },
      {
        "astId": 2863,
        "contract": "src/VestingVault/VestingVault.sol:VestingVault",
        "label": "claimed",
        "offset": 0,
        "slot": "4",
        "type": "t_mapping(t_address,t_bool)"
      },
      {
        "astId": 2873,
        "contract": "src/VestingVault/VestingVault.sol:VestingVault",
        "label": "currentSlashed",
        "offset": 0,
        "slot": "5",
        "type": "t_uint256"
      },
      {
        "astId": 2875,
        "contract": "src/VestingVault/VestingVault.sol:VestingVault",
        "label": "totalSlashed",
        "offset": 0,
        "slot": "6",
        "type": "t_uint256"
      }
    ],
    "types": {
      "t_address": {
        "encoding": "inplace",
        "label": "address",
        "numberOfBytes": "20"
      },
      "t_bool": {
        "encoding": "inplace",
        "label": "bool",
        "numberOfBytes": "1"
      },
      "t_contract(RMetis)2833": {
        "encoding": "inplace",
        "label": "contract RMetis",
        "numberOfBytes": "20"
      },
      "t_mapping(t_address,t_bool)": {
        "encoding": "mapping",
        "key": "t_address",
        "label": "mapping(address => bool)",
        "numberOfBytes": "32",
        "value": "t_bool"
      },
      "t_uint256": {
        "encoding": "inplace",
        "label": "uint256",
        "numberOfBytes": "32"
      }
    }
  }
}